{
  "_format": "hh-sol-artifact-1",
  "contractName": "AminoChainAuthenticator",
  "sourceName": "contracts/AminoChainAuthenticator.sol",
  "abi": [
    {
      "inputs": [
        {
          "internalType": "address",
          "name": "nftAddress",
          "type": "address"
        },
        {
          "internalType": "address",
          "name": "marketplaceAddress",
          "type": "address"
        },
        {
          "internalType": "address",
          "name": "usdcAddress",
          "type": "address"
        }
      ],
      "stateMutability": "nonpayable",
      "type": "constructor"
    },
    {
      "anonymous": false,
      "inputs": [
        {
          "indexed": true,
          "internalType": "address",
          "name": "previousOwner",
          "type": "address"
        },
        {
          "indexed": true,
          "internalType": "address",
          "name": "newOwner",
          "type": "address"
        }
      ],
      "name": "OwnershipTransferred",
      "type": "event"
    },
    {
      "anonymous": false,
      "inputs": [
        {
          "indexed": false,
          "internalType": "address",
          "name": "donor",
          "type": "address"
        },
        {
          "indexed": false,
          "internalType": "address",
          "name": "biobank",
          "type": "address"
        },
        {
          "indexed": false,
          "internalType": "uint256[]",
          "name": "tokenIds",
          "type": "uint256[]"
        },
        {
          "indexed": false,
          "internalType": "uint256[]",
          "name": "amounts",
          "type": "uint256[]"
        }
      ],
      "name": "UserRegistered",
      "type": "event"
    },
    {
      "inputs": [
        {
          "internalType": "address",
          "name": "donor",
          "type": "address"
        },
        {
          "internalType": "bytes32",
          "name": "biodataHash",
          "type": "bytes32"
        }
      ],
      "name": "getRegistrationHash",
      "outputs": [
        {
          "internalType": "bytes32",
          "name": "",
          "type": "bytes32"
        }
      ],
      "stateMutability": "pure",
      "type": "function"
    },
    {
      "inputs": [
        {
          "internalType": "address",
          "name": "donor",
          "type": "address"
        }
      ],
      "name": "isRegistered",
      "outputs": [
        {
          "internalType": "bool",
          "name": "",
          "type": "bool"
        }
      ],
      "stateMutability": "view",
      "type": "function"
    },
    {
      "inputs": [],
      "name": "marketplace",
      "outputs": [
        {
          "internalType": "contract IAminoChainMarketplace",
          "name": "",
          "type": "address"
        }
      ],
      "stateMutability": "view",
      "type": "function"
    },
    {
      "inputs": [],
      "name": "nft",
      "outputs": [
        {
          "internalType": "contract IAminoChainDonation",
          "name": "",
          "type": "address"
        }
      ],
      "stateMutability": "view",
      "type": "function"
    },
    {
      "inputs": [
        {
          "internalType": "address",
          "name": "",
          "type": "address"
        },
        {
          "internalType": "address",
          "name": "",
          "type": "address"
        },
        {
          "internalType": "uint256",
          "name": "",
          "type": "uint256"
        },
        {
          "internalType": "bytes",
          "name": "",
          "type": "bytes"
        }
      ],
      "name": "onERC721Received",
      "outputs": [
        {
          "internalType": "bytes4",
          "name": "",
          "type": "bytes4"
        }
      ],
      "stateMutability": "pure",
      "type": "function"
    },
    {
      "inputs": [],
      "name": "owner",
      "outputs": [
        {
          "internalType": "address",
          "name": "",
          "type": "address"
        }
      ],
      "stateMutability": "view",
      "type": "function"
    },
    {
      "inputs": [
        {
          "components": [
            {
              "components": [
                {
                  "internalType": "bytes32",
                  "name": "A",
                  "type": "bytes32"
                },
                {
                  "internalType": "bytes32",
                  "name": "B",
                  "type": "bytes32"
                },
                {
                  "internalType": "bytes32",
                  "name": "C",
                  "type": "bytes32"
                },
                {
                  "internalType": "bytes32",
                  "name": "DPB",
                  "type": "bytes32"
                },
                {
                  "internalType": "bytes32",
                  "name": "DRB",
                  "type": "bytes32"
                }
              ],
              "internalType": "struct AminoChainLibrary.HlaHashed",
              "name": "hlaHashed",
              "type": "tuple"
            },
            {
              "internalType": "bytes32",
              "name": "hlaHash",
              "type": "bytes32"
            },
            {
              "internalType": "bytes",
              "name": "hlaEncoded",
              "type": "bytes"
            },
            {
              "internalType": "string",
              "name": "genomeEncodedIpfsId",
              "type": "string"
            },
            {
              "internalType": "uint256[]",
              "name": "amounts",
              "type": "uint256[]"
            },
            {
              "internalType": "address",
              "name": "donor",
              "type": "address"
            },
            {
              "internalType": "address",
              "name": "biobank",
              "type": "address"
            }
          ],
          "internalType": "struct AminoChainLibrary.RegistrationData",
          "name": "data",
          "type": "tuple"
        }
      ],
      "name": "register",
      "outputs": [],
      "stateMutability": "nonpayable",
      "type": "function"
    },
    {
      "inputs": [],
      "name": "renounceOwnership",
      "outputs": [],
      "stateMutability": "nonpayable",
      "type": "function"
    },
    {
      "inputs": [
        {
          "internalType": "address",
          "name": "marketplaceAddress",
          "type": "address"
        }
      ],
      "name": "setMarketplaceAddress",
      "outputs": [],
      "stateMutability": "nonpayable",
      "type": "function"
    },
    {
      "inputs": [
        {
          "internalType": "address",
          "name": "nftAddress",
          "type": "address"
        }
      ],
      "name": "setNftAddress",
      "outputs": [],
      "stateMutability": "nonpayable",
      "type": "function"
    },
    {
      "inputs": [
        {
          "internalType": "address",
          "name": "usdcAddress",
          "type": "address"
        }
      ],
      "name": "setUsdcAddress",
      "outputs": [],
      "stateMutability": "nonpayable",
      "type": "function"
    },
    {
      "inputs": [
        {
          "internalType": "address",
          "name": "newOwner",
          "type": "address"
        }
      ],
      "name": "transferOwnership",
      "outputs": [],
      "stateMutability": "nonpayable",
      "type": "function"
    },
    {
      "inputs": [],
      "name": "usdc",
      "outputs": [
        {
          "internalType": "contract IERC20",
          "name": "",
          "type": "address"
        }
      ],
      "stateMutability": "view",
      "type": "function"
    }
  ],
  "bytecode": "0x608060405234801561001057600080fd5b50604051610ecf380380610ecf83398101604081905261002f91610152565b610038336100e6565b600180546001600160a01b0319166001600160a01b03858116918217835560405163a22cb46560e01b8152908516600482015260248101929092529063a22cb46590604401600060405180830381600087803b15801561009757600080fd5b505af11580156100ab573d6000803e3d6000fd5b5050600280546001600160a01b039586166001600160a01b031991821617909155600380549490951693169290921790925550610195915050565b600080546001600160a01b038381166001600160a01b0319831681178455604051919092169283917f8be0079c531659141344cd1fd0a4f28419497f9722a3daafe3b4186f6b6457e09190a35050565b80516001600160a01b038116811461014d57600080fd5b919050565b60008060006060848603121561016757600080fd5b61017084610136565b925061017e60208501610136565b915061018c60408501610136565b90509250925092565b610d2b806101a46000396000f3fe608060405234801561001057600080fd5b50600436106100df5760003560e01c8063715018a61161008c578063b47cc55611610066578063b47cc55614610247578063c3c5a54714610284578063d38bcdee146102a7578063f2fde38b146102e457600080fd5b8063715018a61461021b5780638da5cb5b14610223578063abc8c7af1461023457600080fd5b806347ccca02116100bd57806347ccca02146101925780634d0a087e146101a557806361c085751461020857600080fd5b80630b102d1a146100e4578063150b7a02146100f95780633e413bee14610167575b600080fd5b6100f76100f23660046107e7565b6102f7565b005b610131610107366004610809565b7f150b7a020000000000000000000000000000000000000000000000000000000095945050505050565b6040517fffffffff0000000000000000000000000000000000000000000000000000000090911681526020015b60405180910390f35b60035461017a906001600160a01b031681565b6040516001600160a01b03909116815260200161015e565b60015461017a906001600160a01b031681565b6101fa6101b33660046108a4565b6040516bffffffffffffffffffffffff19606084901b1660208201526034810182905260009060540160405160208183030381529060405280519060200120905092915050565b60405190815260200161015e565b6100f76102163660046108ce565b610399565b6100f76105d6565b6000546001600160a01b031661017a565b60025461017a906001600160a01b031681565b6100f76102553660046107e7565b6002805473ffffffffffffffffffffffffffffffffffffffff19166001600160a01b0392909216919091179055565b6102976102923660046107e7565b6105ea565b604051901515815260200161015e565b6100f76102b53660046107e7565b6003805473ffffffffffffffffffffffffffffffffffffffff19166001600160a01b0392909216919091179055565b6100f76102f23660046107e7565b61067f565b6001805473ffffffffffffffffffffffffffffffffffffffff19166001600160a01b0383811691821783556002546040517fa22cb4650000000000000000000000000000000000000000000000000000000081529116600482015260248101929092529063a22cb46590604401600060405180830381600087803b15801561037e57600080fd5b505af1158015610392573d6000803e3d6000fd5b5050505050565b6103a1610714565b6001546040517f4fe7f56d0000000000000000000000000000000000000000000000000000000081526000916001600160a01b031690634fe7f56d906103eb908590600401610a14565b6000604051808303816000875af115801561040a573d6000803e3d6000fd5b505050506040513d6000823e601f3d908101601f191682016040526104329190810190610b38565b905060005b81518110156105645760025482516001600160a01b039091169063ab7e56929084908490811061046957610469610bf6565b6020026020010151858061010001906104829190610c0c565b8581811061049257610492610bf6565b90506020020135610578876101200160208101906104b091906107e7565b6104c26101608a016101408b016107e7565b6040517fffffffff0000000000000000000000000000000000000000000000000000000060e088901b1681526004810195909552602485019390935260448401919091526001600160a01b03908116606484015216608482015260a401600060405180830381600087803b15801561053957600080fd5b505af115801561054d573d6000803e3d6000fd5b50505050808061055c90610c56565b915050610437565b507fbb689ea3bd48b2b77719d5866875756a883309b1b11a5eaa68069416e34c6a73610598610140840161012085016107e7565b6105aa610160850161014086016107e7565b836105b9610100870187610c0c565b6040516105ca959493929190610c7d565b60405180910390a15050565b6105de610714565b6105e8600061076e565b565b6001546040517f1881eeb40000000000000000000000000000000000000000000000000000000081526001600160a01b0383811660048301526000921690631881eeb490602401600060405180830381865afa15801561064e573d6000803e3d6000fd5b505050506040513d6000823e601f3d908101601f191682016040526106769190810190610b38565b51151592915050565b610687610714565b6001600160a01b0381166107085760405162461bcd60e51b815260206004820152602660248201527f4f776e61626c653a206e6577206f776e657220697320746865207a65726f206160448201527f646472657373000000000000000000000000000000000000000000000000000060648201526084015b60405180910390fd5b6107118161076e565b50565b6000546001600160a01b031633146105e85760405162461bcd60e51b815260206004820181905260248201527f4f776e61626c653a2063616c6c6572206973206e6f7420746865206f776e657260448201526064016106ff565b600080546001600160a01b0383811673ffffffffffffffffffffffffffffffffffffffff19831681178455604051919092169283917f8be0079c531659141344cd1fd0a4f28419497f9722a3daafe3b4186f6b6457e09190a35050565b80356001600160a01b03811681146107e257600080fd5b919050565b6000602082840312156107f957600080fd5b610802826107cb565b9392505050565b60008060008060006080868803121561082157600080fd5b61082a866107cb565b9450610838602087016107cb565b935060408601359250606086013567ffffffffffffffff8082111561085c57600080fd5b818801915088601f83011261087057600080fd5b81358181111561087f57600080fd5b89602082850101111561089157600080fd5b9699959850939650602001949392505050565b600080604083850312156108b757600080fd5b6108c0836107cb565b946020939093013593505050565b6000602082840312156108e057600080fd5b813567ffffffffffffffff8111156108f757600080fd5b8201610160818503121561080257600080fd5b6000808335601e1984360301811261092157600080fd5b830160208101925035905067ffffffffffffffff81111561094157600080fd5b80360382131561095057600080fd5b9250929050565b81835281816020850137506000828201602090810191909152601f909101601f19169091010190565b6000808335601e1984360301811261099757600080fd5b830160208101925035905067ffffffffffffffff8111156109b757600080fd5b8060051b360382131561095057600080fd5b81835260007f07ffffffffffffffffffffffffffffffffffffffffffffffffffffffffffffff8311156109fb57600080fd5b8260051b80836020870137939093016020019392505050565b6020815281356020820152602082013560408201526040820135606082015260608201356080820152608082013560a082015260a082013560c08201526000610a6060c084018461090a565b6101608060e0860152610a7861018086018385610957565b9250610a8760e087018761090a565b9250601f19610100818887030181890152610aa3868685610957565b9550610ab1818a018a610980565b9550925050610120818887030181890152610acd8686856109c9565b9550610ada818a016107cb565b9450505050610140610af6818701846001600160a01b03169052565b610b018188016107cb565b925050610b18818601836001600160a01b03169052565b5090949350505050565b634e487b7160e01b600052604160045260246000fd5b60006020808385031215610b4b57600080fd5b825167ffffffffffffffff80821115610b6357600080fd5b818501915085601f830112610b7757600080fd5b815181811115610b8957610b89610b22565b8060051b604051601f19603f83011681018181108582111715610bae57610bae610b22565b604052918252848201925083810185019188831115610bcc57600080fd5b938501935b82851015610bea57845184529385019392850192610bd1565b98975050505050505050565b634e487b7160e01b600052603260045260246000fd5b6000808335601e19843603018112610c2357600080fd5b83018035915067ffffffffffffffff821115610c3e57600080fd5b6020019150600581901b360382131561095057600080fd5b600060018201610c7657634e487b7160e01b600052601160045260246000fd5b5060010190565b6000608082016001600160a01b03808916845260208189168186015260806040860152829150875180845260a086019250818901935060005b81811015610cd257845184529382019392820192600101610cb6565b5050508381036060850152610ce88186886109c9565b999850505050505050505056fea2646970667358221220a7d1b89b8b12b738e5e0c06cb89371c65d6564fa8d449dd08ab9c33cccbb923f64736f6c63430008110033",
  "linkReferences": {},
  "deployedLinkReferences": {}
}