{
  "_format": "hh-sol-artifact-1",
  "contractName": "AminoChainMarketplace",
  "sourceName": "contracts/AminoChainMarketplace.sol",
  "abi": [
    {
      "inputs": [
        {
          "internalType": "uint256",
          "name": "_donorIncentiveRate",
          "type": "uint256"
        },
        {
          "internalType": "address",
          "name": "_usdc",
          "type": "address"
        },
        {
          "internalType": "address",
          "name": "_tokenizedStemCells",
          "type": "address"
        },
        {
          "internalType": "address",
          "name": "_chainlinkToken",
          "type": "address"
        },
        {
          "internalType": "address",
          "name": "_chainlinkOracle",
          "type": "address"
        }
      ],
      "stateMutability": "nonpayable",
      "type": "constructor"
    },
    {
      "anonymous": false,
      "inputs": [
        {
          "indexed": true,
          "internalType": "bytes32",
          "name": "id",
          "type": "bytes32"
        }
      ],
      "name": "ChainlinkCancelled",
      "type": "event"
    },
    {
      "anonymous": false,
      "inputs": [
        {
          "indexed": true,
          "internalType": "bytes32",
          "name": "id",
          "type": "bytes32"
        }
      ],
      "name": "ChainlinkFulfilled",
      "type": "event"
    },
    {
      "anonymous": false,
      "inputs": [
        {
          "indexed": true,
          "internalType": "bytes32",
          "name": "id",
          "type": "bytes32"
        }
      ],
      "name": "ChainlinkRequested",
      "type": "event"
    },
    {
      "anonymous": false,
      "inputs": [
        {
          "indexed": false,
          "internalType": "address",
          "name": "authenticator",
          "type": "address"
        }
      ],
      "name": "authenticatorAddressSet",
      "type": "event"
    },
    {
      "anonymous": false,
      "inputs": [
        {
          "indexed": false,
          "internalType": "uint256",
          "name": "tokenId",
          "type": "uint256"
        },
        {
          "indexed": false,
          "internalType": "enum AminoChainMarketplace.physicalStatus",
          "name": "status",
          "type": "uint8"
        }
      ],
      "name": "deliveryStatusChanged",
      "type": "event"
    },
    {
      "anonymous": false,
      "inputs": [
        {
          "indexed": false,
          "internalType": "uint256",
          "name": "tokenId",
          "type": "uint256"
        }
      ],
      "name": "listingCanceled",
      "type": "event"
    },
    {
      "anonymous": false,
      "inputs": [
        {
          "indexed": false,
          "internalType": "uint256",
          "name": "newIncentiveRate",
          "type": "uint256"
        }
      ],
      "name": "newDonorIncentiveRate",
      "type": "event"
    },
    {
      "anonymous": false,
      "inputs": [
        {
          "indexed": false,
          "internalType": "address",
          "name": "seller",
          "type": "address"
        },
        {
          "indexed": false,
          "internalType": "uint256",
          "name": "tokenId",
          "type": "uint256"
        },
        {
          "indexed": false,
          "internalType": "uint256",
          "name": "sizeInCC",
          "type": "uint256"
        },
        {
          "indexed": false,
          "internalType": "uint256",
          "name": "price",
          "type": "uint256"
        },
        {
          "indexed": false,
          "internalType": "address",
          "name": "donor",
          "type": "address"
        },
        {
          "indexed": false,
          "internalType": "address",
          "name": "bioBank",
          "type": "address"
        }
      ],
      "name": "newListing",
      "type": "event"
    },
    {
      "anonymous": false,
      "inputs": [
        {
          "indexed": false,
          "internalType": "address",
          "name": "oldOwner",
          "type": "address"
        },
        {
          "indexed": false,
          "internalType": "address",
          "name": "newOwner",
          "type": "address"
        }
      ],
      "name": "ownershipTransferred",
      "type": "event"
    },
    {
      "anonymous": false,
      "inputs": [
        {
          "indexed": false,
          "internalType": "uint256",
          "name": "date",
          "type": "uint256"
        },
        {
          "indexed": false,
          "internalType": "address",
          "name": "bioBank",
          "type": "address"
        },
        {
          "indexed": false,
          "internalType": "address",
          "name": "buyer",
          "type": "address"
        },
        {
          "indexed": false,
          "internalType": "uint256",
          "name": "tokenId",
          "type": "uint256"
        },
        {
          "indexed": false,
          "internalType": "address",
          "name": "donor",
          "type": "address"
        },
        {
          "indexed": false,
          "internalType": "uint256",
          "name": "salePrice",
          "type": "uint256"
        },
        {
          "indexed": false,
          "internalType": "uint256",
          "name": "donorIncentive",
          "type": "uint256"
        },
        {
          "indexed": false,
          "internalType": "uint256",
          "name": "protocolFee",
          "type": "uint256"
        }
      ],
      "name": "saleCompleted",
      "type": "event"
    },
    {
      "anonymous": false,
      "inputs": [
        {
          "indexed": false,
          "internalType": "address",
          "name": "bioBank",
          "type": "address"
        },
        {
          "indexed": false,
          "internalType": "address",
          "name": "buyer",
          "type": "address"
        },
        {
          "indexed": false,
          "internalType": "uint256",
          "name": "tokenId",
          "type": "uint256"
        },
        {
          "indexed": false,
          "internalType": "uint256",
          "name": "sizeInCC",
          "type": "uint256"
        },
        {
          "indexed": false,
          "internalType": "address",
          "name": "donor",
          "type": "address"
        },
        {
          "indexed": false,
          "internalType": "uint256",
          "name": "escrowedPrice",
          "type": "uint256"
        }
      ],
      "name": "saleInitiated",
      "type": "event"
    },
    {
      "anonymous": false,
      "inputs": [
        {
          "indexed": false,
          "internalType": "uint256",
          "name": "tokenId",
          "type": "uint256"
        },
        {
          "indexed": false,
          "internalType": "address",
          "name": "buyer",
          "type": "address"
        },
        {
          "indexed": false,
          "internalType": "address",
          "name": "bioBank",
          "type": "address"
        },
        {
          "indexed": false,
          "internalType": "uint256",
          "name": "refundTotal",
          "type": "uint256"
        }
      ],
      "name": "saleRefunded",
      "type": "event"
    },
    {
      "anonymous": false,
      "inputs": [
        {
          "indexed": false,
          "internalType": "address",
          "name": "stemCells",
          "type": "address"
        }
      ],
      "name": "stemCellsAddressSet",
      "type": "event"
    },
    {
      "inputs": [],
      "name": "authenticator",
      "outputs": [
        {
          "internalType": "address",
          "name": "",
          "type": "address"
        }
      ],
      "stateMutability": "view",
      "type": "function"
    },
    {
      "inputs": [
        {
          "internalType": "uint256",
          "name": "tokenId",
          "type": "uint256"
        }
      ],
      "name": "buyItem",
      "outputs": [],
      "stateMutability": "nonpayable",
      "type": "function"
    },
    {
      "inputs": [
        {
          "internalType": "uint256",
          "name": "tokenId",
          "type": "uint256"
        }
      ],
      "name": "cancelListing",
      "outputs": [],
      "stateMutability": "nonpayable",
      "type": "function"
    },
    {
      "inputs": [
        {
          "internalType": "bytes",
          "name": "",
          "type": "bytes"
        }
      ],
      "name": "checkUpkeep",
      "outputs": [
        {
          "internalType": "bool",
          "name": "upkeepNeeded",
          "type": "bool"
        },
        {
          "internalType": "bytes",
          "name": "performData",
          "type": "bytes"
        }
      ],
      "stateMutability": "view",
      "type": "function"
    },
    {
      "inputs": [],
      "name": "donorIncentiveRate",
      "outputs": [
        {
          "internalType": "uint256",
          "name": "",
          "type": "uint256"
        }
      ],
      "stateMutability": "view",
      "type": "function"
    },
    {
      "inputs": [
        {
          "internalType": "bytes32",
          "name": "_requestId",
          "type": "bytes32"
        },
        {
          "internalType": "bool",
          "name": "isDoctorOrResearcher",
          "type": "bool"
        }
      ],
      "name": "fulfill",
      "outputs": [],
      "stateMutability": "nonpayable",
      "type": "function"
    },
    {
      "inputs": [
        {
          "internalType": "uint256",
          "name": "tokenId",
          "type": "uint256"
        }
      ],
      "name": "getListingData",
      "outputs": [
        {
          "components": [
            {
              "internalType": "address",
              "name": "seller",
              "type": "address"
            },
            {
              "internalType": "uint256",
              "name": "sizeInCC",
              "type": "uint256"
            },
            {
              "internalType": "uint256",
              "name": "price",
              "type": "uint256"
            },
            {
              "internalType": "address",
              "name": "donor",
              "type": "address"
            },
            {
              "internalType": "address",
              "name": "bioBank",
              "type": "address"
            }
          ],
          "internalType": "struct AminoChainMarketplace.Listing",
          "name": "",
          "type": "tuple"
        }
      ],
      "stateMutability": "view",
      "type": "function"
    },
    {
      "inputs": [
        {
          "internalType": "uint256",
          "name": "tokenId",
          "type": "uint256"
        }
      ],
      "name": "getPendingSaleData",
      "outputs": [
        {
          "components": [
            {
              "internalType": "uint256",
              "name": "date",
              "type": "uint256"
            },
            {
              "internalType": "enum AminoChainMarketplace.physicalStatus",
              "name": "saleStatus",
              "type": "uint8"
            },
            {
              "internalType": "address",
              "name": "seller",
              "type": "address"
            },
            {
              "internalType": "address",
              "name": "buyer",
              "type": "address"
            },
            {
              "internalType": "address",
              "name": "bioBank",
              "type": "address"
            },
            {
              "internalType": "address",
              "name": "donor",
              "type": "address"
            },
            {
              "internalType": "uint256",
              "name": "escrowedPayment",
              "type": "uint256"
            }
          ],
          "internalType": "struct AminoChainMarketplace.PendingSale",
          "name": "",
          "type": "tuple"
        }
      ],
      "stateMutability": "view",
      "type": "function"
    },
    {
      "inputs": [],
      "name": "i_usdc",
      "outputs": [
        {
          "internalType": "address",
          "name": "",
          "type": "address"
        }
      ],
      "stateMutability": "view",
      "type": "function"
    },
    {
      "inputs": [
        {
          "internalType": "address",
          "name": "buyer",
          "type": "address"
        }
      ],
      "name": "isApprovedToBuy",
      "outputs": [
        {
          "internalType": "bool",
          "name": "",
          "type": "bool"
        }
      ],
      "stateMutability": "view",
      "type": "function"
    },
    {
      "inputs": [
        {
          "internalType": "uint256",
          "name": "tokenId",
          "type": "uint256"
        },
        {
          "internalType": "uint256",
          "name": "sizeInCC",
          "type": "uint256"
        },
        {
          "internalType": "uint256",
          "name": "price_per_cc",
          "type": "uint256"
        },
        {
          "internalType": "address",
          "name": "donor",
          "type": "address"
        },
        {
          "internalType": "address",
          "name": "bioBank",
          "type": "address"
        }
      ],
      "name": "listItem",
      "outputs": [],
      "stateMutability": "nonpayable",
      "type": "function"
    },
    {
      "inputs": [
        {
          "internalType": "address",
          "name": "",
          "type": "address"
        },
        {
          "internalType": "address",
          "name": "",
          "type": "address"
        },
        {
          "internalType": "uint256",
          "name": "",
          "type": "uint256"
        },
        {
          "internalType": "bytes",
          "name": "",
          "type": "bytes"
        }
      ],
      "name": "onERC721Received",
      "outputs": [
        {
          "internalType": "bytes4",
          "name": "",
          "type": "bytes4"
        }
      ],
      "stateMutability": "pure",
      "type": "function"
    },
    {
      "inputs": [],
      "name": "owner",
      "outputs": [
        {
          "internalType": "address",
          "name": "",
          "type": "address"
        }
      ],
      "stateMutability": "view",
      "type": "function"
    },
    {
      "inputs": [
        {
          "internalType": "bytes",
          "name": "performData",
          "type": "bytes"
        }
      ],
      "name": "performUpkeep",
      "outputs": [],
      "stateMutability": "nonpayable",
      "type": "function"
    },
    {
      "inputs": [],
      "name": "requestBuyAccess",
      "outputs": [],
      "stateMutability": "nonpayable",
      "type": "function"
    },
    {
      "inputs": [
        {
          "internalType": "address",
          "name": "_authenticator",
          "type": "address"
        }
      ],
      "name": "setAuthenticatorAddress",
      "outputs": [],
      "stateMutability": "nonpayable",
      "type": "function"
    },
    {
      "inputs": [
        {
          "internalType": "uint256",
          "name": "newIncentiveRate",
          "type": "uint256"
        }
      ],
      "name": "setDonorIncentiveRate",
      "outputs": [],
      "stateMutability": "nonpayable",
      "type": "function"
    },
    {
      "inputs": [
        {
          "internalType": "address",
          "name": "stemCells",
          "type": "address"
        }
      ],
      "name": "setTokenizedStemCells",
      "outputs": [],
      "stateMutability": "nonpayable",
      "type": "function"
    },
    {
      "inputs": [],
      "name": "tokenziedStemCells",
      "outputs": [
        {
          "internalType": "address",
          "name": "",
          "type": "address"
        }
      ],
      "stateMutability": "view",
      "type": "function"
    },
    {
      "inputs": [
        {
          "internalType": "address",
          "name": "newOwner",
          "type": "address"
        }
      ],
      "name": "transferOwnership",
      "outputs": [],
      "stateMutability": "nonpayable",
      "type": "function"
    },
    {
      "inputs": [
        {
          "internalType": "uint256",
          "name": "tokenId",
          "type": "uint256"
        },
        {
          "internalType": "enum AminoChainMarketplace.physicalStatus",
          "name": "status",
          "type": "uint8"
        }
      ],
      "name": "updateDeliveryStatus",
      "outputs": [],
      "stateMutability": "nonpayable",
      "type": "function"
    },
    {
      "inputs": [
        {
          "internalType": "uint256",
          "name": "tokenId",
          "type": "uint256"
        },
        {
          "internalType": "uint256",
          "name": "newPrice",
          "type": "uint256"
        }
      ],
      "name": "updateListing",
      "outputs": [],
      "stateMutability": "nonpayable",
      "type": "function"
    },
    {
      "inputs": [],
      "name": "withdrawLink",
      "outputs": [],
      "stateMutability": "nonpayable",
      "type": "function"
    }
  ],
  "bytecode": "0x60a060405260016005553480156200001657600080fd5b5060405162004b1238038062004b128339810160408190526200003991620000c7565b600160005560078054336001600160a01b0319918216179091556008805482166001600160a01b0386811691909117909155858116608052600a8790556003805491851691909216179055600480546001600160a01b0319166001600160a01b03831617905550505050506200012e565b80516001600160a01b0381168114620000c257600080fd5b919050565b600080600080600060a08688031215620000e057600080fd5b85519450620000f260208701620000aa565b93506200010260408701620000aa565b92506200011260608701620000aa565b91506200012260808701620000aa565b90509295509295909350565b608051614990620001826000396000818161049401528181611eb8015281816125320152818161262c0152818161277a0152818161300b015281816130f30152818161318e01526135c901526149906000f3fe608060405234801561001057600080fd5b506004361061018d5760003560e01c80638d46e647116100e3578063b534f7be1161008c578063f2fde38b11610066578063f2fde38b14610469578063fd68990a1461047c578063ff40e1d01461048f57600080fd5b8063b534f7be14610423578063db3a48ae14610443578063e7fb74c71461045657600080fd5b8063a4e5d3aa116100bd578063a4e5d3aa146103cc578063aa1856d0146103d4578063ab7e56921461041057600080fd5b80638d46e6471461039e5780638da5cb5b146103b15780638dc654a2146103c457600080fd5b8063266e534511610145578063543538eb1161011f578063543538eb146103575780636e04ff0d1461036a578063823a64041461038b57600080fd5b8063266e53451461031e578063305a67a8146103315780634585e33b1461034457600080fd5b80631dfe0e84116101765780631dfe0e84146101fd5780631fa2be91146102dc5780632335c76b146102f357600080fd5b80630179ea8814610192578063150b7a02146101a7575b600080fd5b6101a56101a036600461413f565b6104b6565b005b6101df6101b53660046141b8565b7f150b7a020000000000000000000000000000000000000000000000000000000095945050505050565b6040516001600160e01b031990911681526020015b60405180910390f35b61029161020b36600461422b565b6040805160a081018252600080825260208201819052918101829052606081018290526080810191909152506000908152600c6020908152604091829020825160a08101845281546001600160a01b0390811682526001830154938201939093526002820154938101939093526003810154821660608401526004015416608082015290565b6040516101f4919081516001600160a01b0390811682526020808401519083015260408084015190830152606080840151821690830152608092830151169181019190915260a00190565b6102e5600a5481565b6040519081526020016101f4565b600954610306906001600160a01b031681565b6040516001600160a01b0390911681526020016101f4565b6101a561032c366004614244565b6106c3565b6101a561033f36600461422b565b610825565b6101a5610352366004614261565b610956565b6101a5610365366004614244565b610f3e565b61037d610378366004614261565b61109a565b6040516101f49291906142f3565b600854610306906001600160a01b031681565b6101a56103ac36600461430e565b6115c6565b600754610306906001600160a01b031681565b6101a56117e9565b6101a561198a565b6104006103e2366004614244565b6001600160a01b031660009081526010602052604090205460ff1690565b60405190151581526020016101f4565b6101a561041e366004614342565b611b0e565b61043661043136600461422b565b6120ca565b6040516101f491906143d0565b6101a561045136600461422b565b6121a2565b6101a561046436600461422b565b6122a8565b6101a5610477366004614244565b612a7d565b6101a561048a366004614445565b612bed565b6103067f000000000000000000000000000000000000000000000000000000000000000081565b6007546001600160a01b031633146105155760405162461bcd60e51b815260206004820181905260248201527f4d73672073656e64657220696e206e6f7420636f6e7472616374206f776e657260448201526064015b60405180910390fd5b6000828152600c6020908152604091829020825160a08101845281546001600160a01b0390811680835260018401549483019490945260028301549482019490945260038201548416606082015260049091015490921660808301526105bd5760405162461bcd60e51b815260206004820152601360248201527f546f6b656e206973206e6f74206c697374656400000000000000000000000000604482015260640161050c565b818160400151036106365760405162461bcd60e51b815260206004820152602760248201527f4f6c642070726963652063616e6e6f74206265207468652073616d652061732060448201527f746865206e657700000000000000000000000000000000000000000000000000606482015260840161050c565b6000838152600c60209081526040918290206002018490558281015160608085015160808087015186513381529586018a9052958501939093529083018690526001600160a01b039081169183019190915290911660a08201527f95dff81097f9b51a680e9265a346738285100e6e1ef72ecf96dddcf9f555f6cd9060c0015b60405180910390a1505050565b6007546001600160a01b0316331461071d5760405162461bcd60e51b815260206004820181905260248201527f4d73672073656e64657220696e206e6f7420636f6e7472616374206f776e6572604482015260640161050c565b6009546001600160a01b0380831691160361077a5760405162461bcd60e51b815260206004820152601a60248201527f4e6577206164647265737320697320616c726561647920736574000000000000604482015260640161050c565b6001600160a01b0381166107d05760405162461bcd60e51b815260206004820152601d60248201527f496e76616c69642061757468656e74696361746f722061646472657373000000604482015260640161050c565b600980546001600160a01b0319166001600160a01b0383169081179091556040519081527f9da5210e450224b4d57208d165c46878ece9c9943decff672779dbb1fbb30701906020015b60405180910390a150565b6007546001600160a01b0316331461087f5760405162461bcd60e51b815260206004820181905260248201527f4d73672073656e64657220696e206e6f7420636f6e7472616374206f776e6572604482015260640161050c565b6000818152600c60205260409020546001600160a01b03166108e35760405162461bcd60e51b815260206004820152601360248201527f546f6b656e206973206e6f74206c697374656400000000000000000000000000604482015260640161050c565b6000818152600c602052604080822080546001600160a01b03199081168255600182018490556002820193909355600381018054841690556004018054909216909155517fbb625791aebea9aad62ce564144ea9b77e18f6fce707746bd3b4c308817dc7e29061081a9083815260200190565b6000806109658385018561451b565b909250905060005b8251811015610cbc576000600d600085848151811061098e5761098e61457f565b602002602001015181526020019081526020016000206040518060e0016040529081600082015481526020016001820160009054906101000a900460ff1660028111156109dd576109dd614398565b60028111156109ee576109ee614398565b815260018201546001600160a01b0361010090910481166020830152600280840154821660408401526003840154821660608401526004840154909116608083015260059092015460a09091015290915081602001516002811115610a5557610a55614398565b14610ac85760405162461bcd60e51b815260206004820152602760248201527f70726f766964656420746f6b656e496420686173206e6f74206265656e20646560448201527f6c69766572656400000000000000000000000000000000000000000000000000606482015260840161050c565b60008160c0015111610b1c5760405162461bcd60e51b815260206004820152601360248201527f4e6f207061796d656e7420657363726f77656400000000000000000000000000604482015260640161050c565b60a08101516001600160a01b0316610b765760405162461bcd60e51b815260206004820152601460248201527f446f6e6f722063616e6e6f74206265206e756c6c000000000000000000000000604482015260640161050c565b60808101516001600160a01b0316610bd05760405162461bcd60e51b815260206004820152601660248201527f42696f42616e6b2063616e6e6f74206265206e756c6c00000000000000000000604482015260640161050c565b60608101516001600160a01b0316610c215760405162461bcd60e51b8152602060048201526014602482015273109d5e595c8818d85b9b9bdd081899481b9d5b1b60621b604482015260640161050c565b60408101516001600160a01b0316610c875760405162461bcd60e51b8152602060048201526024808201527f41757468656e74696361746f722873656c6c6572292063616e6e6f74206265206044820152631b9d5b1b60e21b606482015260840161050c565b610ca9848381518110610c9c57610c9c61457f565b6020026020010151612cf5565b5080610cb4816145ab565b91505061096d565b5060005b8151811015610f36576000600d6000848481518110610ce157610ce161457f565b602002602001015181526020019081526020016000206040518060e0016040529081600082015481526020016001820160009054906101000a900460ff166002811115610d3057610d30614398565b6002811115610d4157610d41614398565b815260018201546001600160a01b0361010090910481166020830152600283015481166040830152600383015481166060830152600483015416608082015260059091015460a090910152805190915062278d0090610da090426145c4565b1015610e045760405162461bcd60e51b815260206004820152602d60248201527f70726f766964656420746f6b656e496420686173206e6f74207375727061737360448201526c1959081d1a5b59481b1a5b5a5d609a1b606482015260840161050c565b60008160c0015111610e585760405162461bcd60e51b815260206004820152601360248201527f4e6f207061796d656e7420657363726f77656400000000000000000000000000604482015260640161050c565b60608101516001600160a01b0316610ea95760405162461bcd60e51b8152602060048201526014602482015273109d5e595c8818d85b9b9bdd081899481b9d5b1b60621b604482015260640161050c565b6009546001600160a01b0316610f015760405162461bcd60e51b815260206004820152601c60248201527f41757468656e74696361746f722063616e6e6f74206265206e756c6c00000000604482015260640161050c565b610f23838381518110610f1657610f1661457f565b6020026020010151613398565b5080610f2e816145ab565b915050610cc0565b505b50505050565b6007546001600160a01b03163314610f985760405162461bcd60e51b815260206004820181905260248201527f4d73672073656e64657220696e206e6f7420636f6e7472616374206f776e6572604482015260640161050c565b6008546001600160a01b0390811690821603610ff65760405162461bcd60e51b815260206004820152601a60248201527f4e6577206164647265737320697320616c726561647920736574000000000000604482015260640161050c565b6001600160a01b03811661104c5760405162461bcd60e51b815260206004820152601960248201527f496e76616c6964207374656d43656c6c73206164647265737300000000000000604482015260640161050c565b600880546001600160a01b0319166001600160a01b0383169081179091556040519081527fa145565e729bfa7f063333631a66b2c7ef471c4a11e75f7a528170576f94c0fa9060200161081a565b6000606060008060005b600b54811015611290576000600d6000600b84815481106110c7576110c761457f565b906000526020600020015481526020019081526020016000206040518060e0016040529081600082015481526020016001820160009054906101000a900460ff16600281111561111957611119614398565b600281111561112a5761112a614398565b815260018201546001600160a01b0361010090910481166020830152600280840154821660408401526003840154821660608401526004840154909116608083015260059092015460a0909101529091508160200151600281111561119157611191614398565b1480156111a2575060008160c00151115b80156111ba575060a08101516001600160a01b031615155b80156111d2575060808101516001600160a01b031615155b80156111ea575060608101516001600160a01b031615155b8015611202575060408101516001600160a01b031615155b156112195783611211816145ab565b94505061127d565b805162278d009061122a90426145c4565b1015801561123c575060008160c00151115b8015611254575060608101516001600160a01b031615155b801561126a57506009546001600160a01b031615155b1561127d5782611279816145ab565b9350505b5080611288816145ab565b9150506110a4565b506000935060008267ffffffffffffffff8111156112b0576112b061446a565b6040519080825280602002602001820160405280156112d9578160200160208202803683370190505b50905060008267ffffffffffffffff8111156112f7576112f761446a565b604051908082528060200260200182016040528015611320578160200160208202803683370190505b50905060008060005b600b54811015611593576000600d6000600b848154811061134c5761134c61457f565b906000526020600020015481526020019081526020016000206040518060e0016040529081600082015481526020016001820160009054906101000a900460ff16600281111561139e5761139e614398565b60028111156113af576113af614398565b815260018201546001600160a01b0361010090910481166020830152600280840154821660408401526003840154821660608401526004840154909116608083015260059092015460a0909101529091508160200151600281111561141657611416614398565b148015611427575060008160c00151115b801561143f575060a08101516001600160a01b031615155b8015611457575060808101516001600160a01b031615155b801561146f575060608101516001600160a01b031615155b8015611487575060408101516001600160a01b031615155b156114dd5760019950600b82815481106114a3576114a361457f565b90600052602060002001548685815181106114c0576114c061457f565b6020908102919091010152836114d5816145ab565b945050611580565b805162278d00906114ee90426145c4565b10158015611500575060008160c00151115b8015611518575060608101516001600160a01b031615155b801561152e57506009546001600160a01b031615155b156115805760019950600b828154811061154a5761154a61457f565b90600052602060002001548584815181106115675761156761457f565b60209081029190910101528261157c816145ab565b9350505b508061158b816145ab565b915050611329565b5083836040516020016115a7929190614607565b60405160208183030381529060405296505050505050505b9250929050565b6007546001600160a01b031633146116205760405162461bcd60e51b815260206004820181905260248201527f4d73672073656e64657220696e206e6f7420636f6e7472616374206f776e6572604482015260640161050c565b6000828152600d60209081526040808320815160e08101909252805482526001810154919290919083019060ff16600281111561165f5761165f614398565b600281111561167057611670614398565b815260018201546001600160a01b03610100909104811660208301526002830154811660408301526003830154811660608084019190915260048401548216608084015260059093015460a090920191909152908201519192501661170e5760405162461bcd60e51b8152602060048201526014602482015273109d5e595c8818d85b9b9bdd081899481b9d5b1b60621b604482015260640161050c565b81600281111561172057611720614398565b8160200151600281111561173657611736614398565b036117835760405162461bcd60e51b815260206004820152601f60248201527f496e70757420737461747573206973207468652073616d65206173206f6c6400604482015260640161050c565b6000838152600d6020526040902060019081018054849260ff19909116908360028111156117b3576117b3614398565b02179055507fc64641e6473a18f9a35661416eb84ec6309832fb57d1d01e1896df66144c3a5583836040516106b692919061462c565b6007546001600160a01b031633146118435760405162461bcd60e51b815260206004820181905260248201527f4d73672073656e64657220696e206e6f7420636f6e7472616374206f776e6572604482015260640161050c565b60006118576003546001600160a01b031690565b6040516370a0823160e01b81523060048201529091506001600160a01b0382169063a9059cbb90339083906370a0823190602401602060405180830381865afa1580156118a8573d6000803e3d6000fd5b505050506040513d601f19601f820116820180604052508101906118cc9190614640565b6040516001600160e01b031960e085901b1681526001600160a01b03909216600483015260248201526044016020604051808303816000875af1158015611917573d6000803e3d6000fd5b505050506040513d601f19601f8201168201806040525081019061193b9190614659565b6119875760405162461bcd60e51b815260206004820152601260248201527f556e61626c6520746f207472616e736665720000000000000000000000000000604482015260640161050c565b50565b60006119d77f6331633565393238383038393465623662323764336361653139363730616133307ffd68990a000000000000000000000000000000000000000000000000000000006137b3565b9050611a436040518060400160405280600381526020017f6765740000000000000000000000000000000000000000000000000000000000815250611a1b33613846565b604051602001611a2b9190614676565b60408051601f19818403018152919052839190613862565b611ac26040518060400160405280600481526020017f70617468000000000000000000000000000000000000000000000000000000008152506040518060400160405280600681526020017f646f63746f720000000000000000000000000000000000000000000000000000815250836138629092919063ffffffff16565b6000611aec82600a611add670de0b6b3a76400006001614707565b611ae79190614734565b613885565b6000908152600f6020526040902080546001600160a01b031916331790555050565b6009546001600160a01b03163314611b8e5760405162461bcd60e51b815260206004820152602860248201527f4d73672073656e64657220696e206e6f742061757468656e74696361746f722060448201527f636f6e7472616374000000000000000000000000000000000000000000000000606482015260840161050c565b6008546040516331a9108f60e11b81526004810187905233916001600160a01b031690636352211e90602401602060405180830381865afa158015611bd7573d6000803e3d6000fd5b505050506040513d601f19601f82011682018060405250810190611bfb9190614748565b6001600160a01b031614611c515760405162461bcd60e51b815260206004820152601c60248201527f546f6b656e206973206e6f74206f776e65642062792073656e64657200000000604482015260640161050c565b6000858152600c60205260409020546001600160a01b031615611cb65760405162461bcd60e51b815260206004820152601760248201527f546f6b656e20697320616c7265616479206c6973746564000000000000000000604482015260640161050c565b6001600160a01b038116611d0c5760405162461bcd60e51b815260206004820152601660248201527f42696f42616e6b2063616e6e6f74206265206e756c6c00000000000000000000604482015260640161050c565b6001600160a01b038216611d625760405162461bcd60e51b815260206004820152601460248201527f446f6e6f722063616e6e6f74206265206e756c6c000000000000000000000000604482015260640161050c565b60008411611db25760405162461bcd60e51b815260206004820152601360248201527f43432073697a652063616e6e6f74206265203000000000000000000000000000604482015260640161050c565b6008546040517fe985e9c50000000000000000000000000000000000000000000000000000000081523360048201523060248201526001600160a01b039091169063e985e9c590604401602060405180830381865afa158015611e19573d6000803e3d6000fd5b505050506040513d601f19601f82011682018060405250810190611e3d9190614659565b1515600114611eb45760405162461bcd60e51b815260206004820152603e60248201527f4d61726b6574706c61636520646f6573206e6f74206861766520617070726f7660448201527f616c2066726f6d206c6973746572206f6e204e465420636f6e74726163740000606482015260840161050c565b60007f00000000000000000000000000000000000000000000000000000000000000006001600160a01b031663313ce5676040518163ffffffff1660e01b8152600401602060405180830381865afa158015611f14573d6000803e3d6000fd5b505050506040513d601f19601f82011682018060405250810190611f389190614765565b611f4390600a61486c565b611f4d8686614707565b611f579190614707565b90506040518060a00160405280336001600160a01b03168152602001868152602001828152602001846001600160a01b03168152602001836001600160a01b0316815250600c600088815260200190815260200160002060008201518160000160006101000a8154816001600160a01b0302191690836001600160a01b03160217905550602082015181600101556040820151816002015560608201518160030160006101000a8154816001600160a01b0302191690836001600160a01b0316021790555060808201518160040160006101000a8154816001600160a01b0302191690836001600160a01b031602179055509050507f95dff81097f9b51a680e9265a346738285100e6e1ef72ecf96dddcf9f555f6cd3387878487876040516120ba969594939291906001600160a01b0396871681526020810195909552604085019390935260608401919091528316608083015290911660a082015260c00190565b60405180910390a1505050505050565b6040805160e081018252600080825260208201819052918101829052606081018290526080810182905260a0810182905260c08101919091526000828152600d6020908152604091829020825160e08101909352805483526001810154909183019060ff16600281111561214057612140614398565b600281111561215157612151614398565b815260018201546001600160a01b0361010090910481166020830152600283015481166040830152600383015481166060830152600483015416608082015260059091015460a09091015292915050565b6007546001600160a01b031633146121fc5760405162461bcd60e51b815260206004820181905260248201527f4d73672073656e64657220696e206e6f7420636f6e7472616374206f776e6572604482015260640161050c565b80600a54036122735760405162461bcd60e51b815260206004820152602960248201527f4e657720696e63656e746976652072617465206973207468652073616d65206160448201527f7320746865206f6c640000000000000000000000000000000000000000000000606482015260840161050c565b600a8190556040518181527f0e8bdd7f2b7add1b6b2292115d8f94f1b2a07f7b08085a30bcf25566a3811dba9060200161081a565b6002600054036122fa5760405162461bcd60e51b815260206004820152601f60248201527f5265656e7472616e637947756172643a207265656e7472616e742063616c6c00604482015260640161050c565b60026000818155828152600c6020908152604091829020825160a08101845281546001600160a01b039081168083526001840154948301949094529482015493810193909352600381015484166060840152600401549092166080820152906123a55760405162461bcd60e51b815260206004820152601360248201527f546f6b656e206973206e6f74206c697374656400000000000000000000000000604482015260640161050c565b3360009081526010602052604090205460ff16151560011461242f5760405162461bcd60e51b815260206004820152602160248201527f4d73672073656e646572206973206e6f7420617070726f76656420746f20627560448201527f7900000000000000000000000000000000000000000000000000000000000000606482015260840161050c565b6008546040516331a9108f60e11b81526004810184905233916001600160a01b031690636352211e90602401602060405180830381865afa158015612478573d6000803e3d6000fd5b505050506040513d601f19601f8201168201806040525081019061249c9190614748565b6001600160a01b0316036125185760405162461bcd60e51b815260206004820152602360248201527f546f6b656e2073656c6c65722063616e6e6f742062757920746865697220746f60448201527f6b656e0000000000000000000000000000000000000000000000000000000000606482015260840161050c565b60408181015190516370a0823160e01b81523360048201527f00000000000000000000000000000000000000000000000000000000000000006001600160a01b0316906370a0823190602401602060405180830381865afa158015612581573d6000803e3d6000fd5b505050506040513d601f19601f820116820180604052508101906125a59190614640565b10156125f35760405162461bcd60e51b815260206004820152601f60248201527f4275796572277320555344432062616c656e636520697320746f6f206c6f7700604482015260640161050c565b60408181015190517fdd62ed3e0000000000000000000000000000000000000000000000000000000081523360048201523060248201527f00000000000000000000000000000000000000000000000000000000000000006001600160a01b03169063dd62ed3e90604401602060405180830381865afa15801561267b573d6000803e3d6000fd5b505050506040513d601f19601f8201168201806040525081019061269f9190614640565b10156127395760405162461bcd60e51b815260206004820152605f60248201527f4d61726b6574706c61636520616c6c6f77616e63652066726f6d20627579657260448201527f206f6e205553444320636f6e7472616374206d7573742062652068696768657260648201527f207468616e206f7220657175616c20746f206c697374696e6720707269636500608482015260a40161050c565b60408181015190517f23b872dd00000000000000000000000000000000000000000000000000000000815233600482015230602482015260448101919091527f00000000000000000000000000000000000000000000000000000000000000006001600160a01b0316906323b872dd906064016020604051808303816000875af11580156127cb573d6000803e3d6000fd5b505050506040513d601f19601f820116820180604052508101906127ef9190614659565b506008548151604051632142170760e11b81526001600160a01b039182166004820152306024820152604481018590529116906342842e0e90606401600060405180830381600087803b15801561284557600080fd5b505af1158015612859573d6000803e3d6000fd5b5050600b80546001818101835560008390527f0175b7a638427703f0dbe7bb9bbf987a2551717b34e79f33b5b1008d1fa01db990910186905590546128a193509091506145c4565b6000838152600e6020908152604080832093909355825160e08101845242815280820183815285516001600160a01b0390811683870152336060808501919091526080808901518316908501528701511660a08301528585015160c0830152868452600d9092529290912082518155905160018083018054909160ff199091169083600281111561293457612934614398565b0217905550604082810151600183810180547fffffffffffffffffffffff0000000000000000000000000000000000000000ff166101006001600160a01b0394851602179055606080860151600280870180546001600160a01b03199081169387169390931790556080808901516003808a01805486169289169290921790915560a0808b01516004808c0180548816928b169290921790915560c09b8c01516005909b019a909a5560008d8152600c60209081528a8220805488168155988901829055948801559086018054851690559490970180549092169091558786015188820151898401518a8801518851938816845233948401949094528288018c9052938201529190931694810194909452830152517f49cbf75a1a7fe14b3c89ebd4a77a8a203a6a7eba81fa25d978a23fb91a4e7848929181900390910190a150506001600055565b6007546001600160a01b03163314612ad75760405162461bcd60e51b815260206004820181905260248201527f4d73672073656e64657220696e206e6f7420636f6e7472616374206f776e6572604482015260640161050c565b6007546001600160a01b0390811690821603612b355760405162461bcd60e51b815260206004820152601c60248201527f4e6577206164647265737320697320616c7265616479206f776e657200000000604482015260640161050c565b6001600160a01b038116612b8b5760405162461bcd60e51b815260206004820152601560248201527f496e76616c6964206f776e657220616464726573730000000000000000000000604482015260640161050c565b600780546001600160a01b038381166001600160a01b031983168117909355604080519190921680825260208201939093527f7699c77f2404f9b6bbd003861bb4af8ae70b205e19e73d7ec7fe4590db59a6b791015b60405180910390a15050565b60008281526006602052604090205482906001600160a01b03163314612c7b5760405162461bcd60e51b815260206004820152602860248201527f536f75726365206d75737420626520746865206f7261636c65206f662074686560448201527f2072657175657374000000000000000000000000000000000000000000000000606482015260840161050c565b60008181526006602052604080822080546001600160a01b03191690555182917f7cc135e0cebb02c3480ae5d74d377283180a2601f8f644edf7987b009316c63a91a2506000918252600f60209081526040808420546001600160a01b031684526010909152909120805460ff1916911515919091179055565b6000818152600d60209081526040808320815160e08101909252805482526001810154919290919083019060ff166002811115612d3457612d34614398565b6002811115612d4557612d45614398565b815260018201546001600160a01b0361010090910481166020830152600280840154821660408401526003840154821660608401526004840154909116608083015260059092015460a09091015290915081602001516002811115612dac57612dac614398565b14612e1f5760405162461bcd60e51b815260206004820152602860248201527f506879736963616c206974656d20686173206e6f74206265656e2064656c697660448201527f6572656420796574000000000000000000000000000000000000000000000000606482015260840161050c565b60008160c0015111612e735760405162461bcd60e51b815260206004820152601f60248201527f4e6f207061796d656e7420657363726f77656420746f207472616e7366657200604482015260640161050c565b60a08101516001600160a01b0316612ecd5760405162461bcd60e51b815260206004820152601460248201527f446f6e6f722063616e6e6f74206265206e756c6c000000000000000000000000604482015260640161050c565b60808101516001600160a01b0316612f275760405162461bcd60e51b815260206004820152601660248201527f42696f42616e6b2063616e6e6f74206265206e756c6c00000000000000000000604482015260640161050c565b60608101516001600160a01b0316612f785760405162461bcd60e51b8152602060048201526014602482015273109d5e595c8818d85b9b9bdd081899481b9d5b1b60621b604482015260640161050c565b60408101516001600160a01b0316612fde5760405162461bcd60e51b8152602060048201526024808201527f41757468656e74696361746f722873656c6c6572292063616e6e6f74206265206044820152631b9d5b1b60e21b606482015260840161050c565b6000600a548260c00151612ff29190614734565b90506000600a8360c001516130079190614734565b90507f00000000000000000000000000000000000000000000000000000000000000006001600160a01b031663a9059cbb84608001518385613049919061487b565b8660c0015161305891906145c4565b6040516001600160e01b031960e085901b1681526001600160a01b03909216600483015260248201526044016020604051808303816000875af11580156130a3573d6000803e3d6000fd5b505050506040513d601f19601f820116820180604052508101906130c79190614659565b50604083810151905163a9059cbb60e01b81526001600160a01b039182166004820152602481018390527f00000000000000000000000000000000000000000000000000000000000000009091169063a9059cbb906044016020604051808303816000875af115801561313e573d6000803e3d6000fd5b505050506040513d601f19601f820116820180604052508101906131629190614659565b5060a083015160405163a9059cbb60e01b81526001600160a01b039182166004820152602481018490527f00000000000000000000000000000000000000000000000000000000000000009091169063a9059cbb906044016020604051808303816000875af11580156131d9573d6000803e3d6000fd5b505050506040513d601f19601f820116820180604052508101906131fd9190614659565b506008546060840151604051632142170760e11b81523060048201526001600160a01b039182166024820152604481018790529116906342842e0e90606401600060405180830381600087803b15801561325657600080fd5b505af115801561326a573d6000803e3d6000fd5b5050506000858152600d6020908152604080832083815560018101805474ffffffffffffffffffffffffffffffffffffffffff191690556002810180546001600160a01b0319908116909155600382018054821690556004820180549091169055600501839055600e909152902054600b805490925081106132ee576132ee61457f565b90600052602060002001600090557fe8087261af429378cdcf6fb45c60e1467fea0d8ad5a246b436ce99f0b41f7fb14284608001518560600151878760a001518860c00151888860405161338a9897969594939291909788526001600160a01b039687166020890152948616604088015260608701939093529316608085015260a084019290925260c083019190915260e08201526101000190565b60405180910390a150505050565b6000818152600d60209081526040808320815160e08101909252805482526001810154919290919083019060ff1660028111156133d7576133d7614398565b60028111156133e8576133e8614398565b815260018201546001600160a01b0361010090910481166020830152600283015481166040830152600383015481166060830152600483015416608082015260059091015460a090910152805190915062278d009061344790426145c4565b10156134ab5760405162461bcd60e51b815260206004820152602d60248201527f70726f766964656420746f6b656e496420686173206e6f74207375727061737360448201526c1959081d1a5b59481b1a5b5a5d609a1b606482015260840161050c565b60008160c00151116134ff5760405162461bcd60e51b815260206004820181905260248201527f4e6f20657363726f776564207061796d656e7420746f20207472616e73666572604482015260640161050c565b60608101516001600160a01b03166135505760405162461bcd60e51b8152602060048201526014602482015273109d5e595c8818d85b9b9bdd081899481b9d5b1b60621b604482015260640161050c565b6009546001600160a01b03166135a85760405162461bcd60e51b815260206004820152601c60248201527f41757468656e74696361746f722063616e6e6f74206265206e756c6c00000000604482015260640161050c565b606081015160c082015160405163a9059cbb60e01b81526001600160a01b037f0000000000000000000000000000000000000000000000000000000000000000169263a9059cbb92613610926004016001600160a01b03929092168252602082015260400190565b6020604051808303816000875af115801561362f573d6000803e3d6000fd5b505050506040513d601f19601f820116820180604052508101906136539190614659565b506008546040828101519051632142170760e11b81523060048201526001600160a01b039182166024820152604481018590529116906342842e0e90606401600060405180830381600087803b1580156136ac57600080fd5b505af11580156136c0573d6000803e3d6000fd5b5050506000838152600d6020908152604080832083815560018101805474ffffffffffffffffffffffffffffffffffffffffff191690556002810180546001600160a01b0319908116909155600382018054821690556004820180549091169055600501839055600e909152902054600b805490925081106137445761374461457f565b90600052602060002001600090557fea05c9bb4e93f6d16336ec17cc9e7ce7adaa9e97a8b7fed7a18f0e06c670112882826060015183608001518460c00151604051612be194939291909384526001600160a01b03928316602085015291166040830152606082015260800190565b6137f16040805160a0810182526000808252602080830182905282840182905260608084018390528451808601909552845283015290608082015290565b61382f6040805160a0810182526000808252602080830182905282840182905260608084018390528451808601909552845283015290608082015290565b61383b8186868661389f565b9150505b9392505050565b606061385c6001600160a01b038316601461391b565b92915050565b60808301516138719083613afc565b60808301516138809082613afc565b505050565b60045460009061383f906001600160a01b03168484613b13565b6138dd6040805160a0810182526000808252602080830182905282840182905260608084018390528451808601909552845283015290608082015290565b6138ed8560800151610100613bd4565b50508284526001600160a01b03821660208501526001600160e01b031981166040850152835b949350505050565b6060600061392a836002614707565b61393590600261487b565b67ffffffffffffffff81111561394d5761394d61446a565b6040519080825280601f01601f191660200182016040528015613977576020820181803683370190505b5090507f3000000000000000000000000000000000000000000000000000000000000000816000815181106139ae576139ae61457f565b60200101906001600160f81b031916908160001a9053507f7800000000000000000000000000000000000000000000000000000000000000816001815181106139f9576139f961457f565b60200101906001600160f81b031916908160001a9053506000613a1d846002614707565b613a2890600161487b565b90505b6001811115613aad577f303132333435363738396162636465660000000000000000000000000000000085600f1660108110613a6957613a6961457f565b1a60f81b828281518110613a7f57613a7f61457f565b60200101906001600160f81b031916908160001a90535060049490941c93613aa68161488e565b9050613a2b565b50831561383f5760405162461bcd60e51b815260206004820181905260248201527f537472696e67733a20686578206c656e67746820696e73756666696369656e74604482015260640161050c565b613b098260038351613c39565b6138808282613d48565b600554600090613b2481600161487b565b600555835160408086015160808701515191516000937f404299460000000000000000000000000000000000000000000000000000000093613b759386938493923092918a916001916024016148a5565b60408051601f198184030181529190526020810180517bffffffffffffffffffffffffffffffffffffffffffffffffffffffff166001600160e01b0319909316929092179091529050613bca86838684613d6f565b9695505050505050565b604080518082019091526060815260006020820152613bf4602083614909565b15613c1c57613c04602083614909565b613c0f9060206145c4565b613c19908361487b565b91505b506020828101829052604080518085526000815290920101905290565b60178167ffffffffffffffff1611613c5e57610f388360e0600585901b168317613f00565b60ff8167ffffffffffffffff1611613c9c57613c85836018611fe0600586901b1617613f00565b50610f388367ffffffffffffffff83166001613f25565b61ffff8167ffffffffffffffff1611613cdb57613cc4836019611fe0600586901b1617613f00565b50610f388367ffffffffffffffff83166002613f25565b63ffffffff8167ffffffffffffffff1611613d1c57613d0583601a611fe0600586901b1617613f00565b50610f388367ffffffffffffffff83166004613f25565b613d3183601b611fe0600586901b1617613f00565b50610f388367ffffffffffffffff83166008613f25565b60408051808201909152606081526000602082015261383f83846000015151848551613f4b565b6040516bffffffffffffffffffffffff193060601b1660208201526034810184905260009060540160408051808303601f1901815282825280516020918201206000818152600690925291812080546001600160a01b0319166001600160a01b038a1617905590925082917fb5e6e01e79f91267dc17b4e6314d5d4d03593d2ceee0fbb452b750bd70ea5af99190a26003546040517f4000aea00000000000000000000000000000000000000000000000000000000081526001600160a01b0390911690634000aea090613e4b9088908790879060040161491d565b6020604051808303816000875af1158015613e6a573d6000803e3d6000fd5b505050506040513d601f19601f82011682018060405250810190613e8e9190614659565b6139135760405162461bcd60e51b815260206004820152602360248201527f756e61626c6520746f207472616e73666572416e6443616c6c20746f206f726160448201527f636c650000000000000000000000000000000000000000000000000000000000606482015260840161050c565b60408051808201909152606081526000602082015261383f8384600001515184614035565b604080518082019091526060815260006020820152613913848560000151518585614090565b6040805180820190915260608152600060208201528251821115613f6e57600080fd5b6020850151613f7d838661487b565b1115613fb057613fb085613fa087602001518786613f9b919061487b565b614111565b613fab906002614707565b614128565b600080865180518760208301019350808887011115613fcf5787860182525b505050602084015b6020841061400f5780518252613fee60208361487b565b9150613ffb60208261487b565b90506140086020856145c4565b9350613fd7565b51815160001960208690036101000a019081169019919091161790525083949350505050565b6040805180820190915260608152600060208201528360200151831061406a5761406a8485602001516002613fab9190614707565b8351805160208583010184815350808503614086576001810182525b5093949350505050565b60408051808201909152606081526000602082015260208501516140b4858461487b565b11156140c8576140c885613fa0868561487b565b600060016140d88461010061494e565b6140e291906145c4565b90508551838682010185831982511617815250805184870111156141065783860181525b509495945050505050565b60008183111561412257508161385c565b50919050565b81516141348383613bd4565b50610f388382613d48565b6000806040838503121561415257600080fd5b50508035926020909101359150565b6001600160a01b038116811461198757600080fd5b60008083601f84011261418857600080fd5b50813567ffffffffffffffff8111156141a057600080fd5b6020830191508360208285010111156115bf57600080fd5b6000806000806000608086880312156141d057600080fd5b85356141db81614161565b945060208601356141eb81614161565b935060408601359250606086013567ffffffffffffffff81111561420e57600080fd5b61421a88828901614176565b969995985093965092949392505050565b60006020828403121561423d57600080fd5b5035919050565b60006020828403121561425657600080fd5b813561383f81614161565b6000806020838503121561427457600080fd5b823567ffffffffffffffff81111561428b57600080fd5b61429785828601614176565b90969095509350505050565b60005b838110156142be5781810151838201526020016142a6565b50506000910152565b600081518084526142df8160208601602086016142a3565b601f01601f19169290920160200192915050565b821515815260406020820152600061391360408301846142c7565b6000806040838503121561432157600080fd5b8235915060208301356003811061433757600080fd5b809150509250929050565b600080600080600060a0868803121561435a57600080fd5b853594506020860135935060408601359250606086013561437a81614161565b9150608086013561438a81614161565b809150509295509295909350565b634e487b7160e01b600052602160045260246000fd5b600381106143cc57634e487b7160e01b600052602160045260246000fd5b9052565b8151815260208083015160e08301916143eb908401826143ae565b5060408301516001600160a01b0380821660408501528060608601511660608501528060808601511660808501528060a08601511660a0850152505060c083015160c083015292915050565b801515811461198757600080fd5b6000806040838503121561445857600080fd5b82359150602083013561433781614437565b634e487b7160e01b600052604160045260246000fd5b600082601f83011261449157600080fd5b8135602067ffffffffffffffff808311156144ae576144ae61446a565b8260051b604051601f19603f830116810181811084821117156144d3576144d361446a565b6040529384528581018301938381019250878511156144f157600080fd5b83870191505b84821015614510578135835291830191908301906144f7565b979650505050505050565b6000806040838503121561452e57600080fd5b823567ffffffffffffffff8082111561454657600080fd5b61455286838701614480565b9350602085013591508082111561456857600080fd5b5061457585828601614480565b9150509250929050565b634e487b7160e01b600052603260045260246000fd5b634e487b7160e01b600052601160045260246000fd5b6000600182016145bd576145bd614595565b5060010190565b8181038181111561385c5761385c614595565b600081518084526020808501945080840160005b83811015614106578151875295820195908201906001016145eb565b60408152600061461a60408301856145d7565b828103602084015261383b81856145d7565b8281526040810161383f60208301846143ae565b60006020828403121561465257600080fd5b5051919050565b60006020828403121561466b57600080fd5b815161383f81614437565b7f68747470733a2f2f616d696e6f2d636861696e2d646f63746f72732d7265676981527f737472792e6865726f6b756170702e636f6d2f69732d69742d646f63746f722d60208201527f77616c6c65742f000000000000000000000000000000000000000000000000006040820152600082516146fa8160478501602087016142a3565b9190910160470192915050565b808202811582820484141761385c5761385c614595565b634e487b7160e01b600052601260045260246000fd5b6000826147435761474361471e565b500490565b60006020828403121561475a57600080fd5b815161383f81614161565b60006020828403121561477757600080fd5b815160ff8116811461383f57600080fd5b600181815b808511156147c35781600019048211156147a9576147a9614595565b808516156147b657918102915b93841c939080029061478d565b509250929050565b6000826147da5750600161385c565b816147e75750600061385c565b81600181146147fd576002811461480757614823565b600191505061385c565b60ff84111561481857614818614595565b50506001821b61385c565b5060208310610133831016604e8410600b8410161715614846575081810a61385c565b6148508383614788565b806000190482111561486457614864614595565b029392505050565b600061383f60ff8416836147cb565b8082018082111561385c5761385c614595565b60008161489d5761489d614595565b506000190190565b60006101006001600160a01b03808c1684528a60208501528960408501528089166060850152506001600160e01b0319871660808401528560a08401528460c08401528060e08401526148fa818401856142c7565b9b9a5050505050505050505050565b6000826149185761491861471e565b500690565b6001600160a01b038416815282602082015260606040820152600061494560608301846142c7565b95945050505050565b600061383f83836147cb56fea264697066735822122098cfada5ea3d361fd7a7cf41c3a260e76daab7fec3aa82c1c11b44555e6c743664736f6c63430008110033",
  "linkReferences": {},
  "deployedLinkReferences": {}
}