{
  "_format": "hh-sol-artifact-1",
  "contractName": "Token",
  "sourceName": "contracts/mocks/Token.sol",
  "abi": [
    {
      "inputs": [
        {
          "internalType": "string",
          "name": "name_",
          "type": "string"
        },
        {
          "internalType": "string",
          "name": "symbol_",
          "type": "string"
        },
        {
          "internalType": "uint8",
          "name": "decimal_",
          "type": "uint8"
        },
        {
          "internalType": "uint256",
          "name": "supply",
          "type": "uint256"
        }
      ],
      "stateMutability": "nonpayable",
      "type": "constructor"
    },
    {
      "anonymous": false,
      "inputs": [
        {
          "indexed": true,
          "internalType": "address",
          "name": "owner",
          "type": "address"
        },
        {
          "indexed": true,
          "internalType": "address",
          "name": "spender",
          "type": "address"
        },
        {
          "indexed": false,
          "internalType": "uint256",
          "name": "value",
          "type": "uint256"
        }
      ],
      "name": "Approval",
      "type": "event"
    },
    {
      "anonymous": false,
      "inputs": [
        {
          "indexed": true,
          "internalType": "address",
          "name": "from",
          "type": "address"
        },
        {
          "indexed": true,
          "internalType": "address",
          "name": "to",
          "type": "address"
        },
        {
          "indexed": false,
          "internalType": "uint256",
          "name": "value",
          "type": "uint256"
        }
      ],
      "name": "Transfer",
      "type": "event"
    },
    {
      "inputs": [
        {
          "internalType": "address",
          "name": "owner",
          "type": "address"
        },
        {
          "internalType": "address",
          "name": "spender",
          "type": "address"
        }
      ],
      "name": "allowance",
      "outputs": [
        {
          "internalType": "uint256",
          "name": "",
          "type": "uint256"
        }
      ],
      "stateMutability": "view",
      "type": "function"
    },
    {
      "inputs": [
        {
          "internalType": "address",
          "name": "spender",
          "type": "address"
        },
        {
          "internalType": "uint256",
          "name": "amount",
          "type": "uint256"
        }
      ],
      "name": "approve",
      "outputs": [
        {
          "internalType": "bool",
          "name": "",
          "type": "bool"
        }
      ],
      "stateMutability": "nonpayable",
      "type": "function"
    },
    {
      "inputs": [
        {
          "internalType": "address",
          "name": "account",
          "type": "address"
        }
      ],
      "name": "balanceOf",
      "outputs": [
        {
          "internalType": "uint256",
          "name": "",
          "type": "uint256"
        }
      ],
      "stateMutability": "view",
      "type": "function"
    },
    {
      "inputs": [],
      "name": "decimal",
      "outputs": [
        {
          "internalType": "uint8",
          "name": "",
          "type": "uint8"
        }
      ],
      "stateMutability": "view",
      "type": "function"
    },
    {
      "inputs": [],
      "name": "decimals",
      "outputs": [
        {
          "internalType": "uint8",
          "name": "",
          "type": "uint8"
        }
      ],
      "stateMutability": "view",
      "type": "function"
    },
    {
      "inputs": [
        {
          "internalType": "address",
          "name": "spender",
          "type": "address"
        },
        {
          "internalType": "uint256",
          "name": "subtractedValue",
          "type": "uint256"
        }
      ],
      "name": "decreaseAllowance",
      "outputs": [
        {
          "internalType": "bool",
          "name": "",
          "type": "bool"
        }
      ],
      "stateMutability": "nonpayable",
      "type": "function"
    },
    {
      "inputs": [
        {
          "internalType": "address",
          "name": "spender",
          "type": "address"
        },
        {
          "internalType": "uint256",
          "name": "addedValue",
          "type": "uint256"
        }
      ],
      "name": "increaseAllowance",
      "outputs": [
        {
          "internalType": "bool",
          "name": "",
          "type": "bool"
        }
      ],
      "stateMutability": "nonpayable",
      "type": "function"
    },
    {
      "inputs": [],
      "name": "name",
      "outputs": [
        {
          "internalType": "string",
          "name": "",
          "type": "string"
        }
      ],
      "stateMutability": "view",
      "type": "function"
    },
    {
      "inputs": [],
      "name": "symbol",
      "outputs": [
        {
          "internalType": "string",
          "name": "",
          "type": "string"
        }
      ],
      "stateMutability": "view",
      "type": "function"
    },
    {
      "inputs": [],
      "name": "totalSupply",
      "outputs": [
        {
          "internalType": "uint256",
          "name": "",
          "type": "uint256"
        }
      ],
      "stateMutability": "view",
      "type": "function"
    },
    {
      "inputs": [
        {
          "internalType": "address",
          "name": "to",
          "type": "address"
        },
        {
          "internalType": "uint256",
          "name": "amount",
          "type": "uint256"
        }
      ],
      "name": "transfer",
      "outputs": [
        {
          "internalType": "bool",
          "name": "",
          "type": "bool"
        }
      ],
      "stateMutability": "nonpayable",
      "type": "function"
    },
    {
      "inputs": [
        {
          "internalType": "address",
          "name": "from",
          "type": "address"
        },
        {
          "internalType": "address",
          "name": "to",
          "type": "address"
        },
        {
          "internalType": "uint256",
          "name": "amount",
          "type": "uint256"
        }
      ],
      "name": "transferFrom",
      "outputs": [
        {
          "internalType": "bool",
          "name": "",
          "type": "bool"
        }
      ],
      "stateMutability": "nonpayable",
      "type": "function"
    }
  ],
  "bytecode": "0x60a06040523480156200001157600080fd5b5060405162000f7138038062000f7183398101604081905262000034916200023d565b8383600362000044838262000356565b50600462000053828262000356565b50505060ff821660805262000081336200006f84600a62000537565b6200007b90846200054f565b6200008b565b505050506200057f565b6001600160a01b038216620000e65760405162461bcd60e51b815260206004820152601f60248201527f45524332303a206d696e7420746f20746865207a65726f206164647265737300604482015260640160405180910390fd5b8060026000828254620000fa919062000569565b90915550506001600160a01b038216600090815260208190526040812080548392906200012990849062000569565b90915550506040518181526001600160a01b038316906000907fddf252ad1be2c89b69c2b068fc378daa952ba7f163c4a11628f55a4df523b3ef9060200160405180910390a35050565b505050565b634e487b7160e01b600052604160045260246000fd5b600082601f830112620001a057600080fd5b81516001600160401b0380821115620001bd57620001bd62000178565b604051601f8301601f19908116603f01168101908282118183101715620001e857620001e862000178565b816040528381526020925086838588010111156200020557600080fd5b600091505b838210156200022957858201830151818301840152908201906200020a565b600093810190920192909252949350505050565b600080600080608085870312156200025457600080fd5b84516001600160401b03808211156200026c57600080fd5b6200027a888389016200018e565b955060208701519150808211156200029157600080fd5b50620002a0878288016200018e565b935050604085015160ff81168114620002b857600080fd5b6060959095015193969295505050565b600181811c90821680620002dd57607f821691505b602082108103620002fe57634e487b7160e01b600052602260045260246000fd5b50919050565b601f8211156200017357600081815260208120601f850160051c810160208610156200032d5750805b601f850160051c820191505b818110156200034e5782815560010162000339565b505050505050565b81516001600160401b0381111562000372576200037262000178565b6200038a81620003838454620002c8565b8462000304565b602080601f831160018114620003c25760008415620003a95750858301515b600019600386901b1c1916600185901b1785556200034e565b600085815260208120601f198616915b82811015620003f357888601518255948401946001909101908401620003d2565b5085821015620004125787850151600019600388901b60f8161c191681555b5050505050600190811b01905550565b634e487b7160e01b600052601160045260246000fd5b600181815b80851115620004795781600019048211156200045d576200045d62000422565b808516156200046b57918102915b93841c93908002906200043d565b509250929050565b600082620004925750600162000531565b81620004a15750600062000531565b8160018114620004ba5760028114620004c557620004e5565b600191505062000531565b60ff841115620004d957620004d962000422565b50506001821b62000531565b5060208310610133831016604e8410600b84101617156200050a575081810a62000531565b62000516838362000438565b80600019048211156200052d576200052d62000422565b0290505b92915050565b60006200054860ff84168362000481565b9392505050565b808202811582820484141762000531576200053162000422565b8082018082111562000531576200053162000422565b6080516109cf620005a26000396000818161014101526101b401526109cf6000f3fe608060405234801561001057600080fd5b50600436106100d45760003560e01c806370a0823111610081578063a457c2d71161005b578063a457c2d7146101de578063a9059cbb146101f1578063dd62ed3e1461020457600080fd5b806370a082311461018657806376809ce3146101af57806395d89b41146101d657600080fd5b806323b872dd116100b257806323b872dd1461012c578063313ce5671461013f578063395093511461017357600080fd5b806306fdde03146100d9578063095ea7b3146100f757806318160ddd1461011a575b600080fd5b6100e161023d565b6040516100ee9190610819565b60405180910390f35b61010a610105366004610883565b6102cf565b60405190151581526020016100ee565b6002545b6040519081526020016100ee565b61010a61013a3660046108ad565b6102e9565b7f00000000000000000000000000000000000000000000000000000000000000005b60405160ff90911681526020016100ee565b61010a610181366004610883565b61030d565b61011e6101943660046108e9565b6001600160a01b031660009081526020819052604090205490565b6101617f000000000000000000000000000000000000000000000000000000000000000081565b6100e161034c565b61010a6101ec366004610883565b61035b565b61010a6101ff366004610883565b61040a565b61011e61021236600461090b565b6001600160a01b03918216600090815260016020908152604080832093909416825291909152205490565b60606003805461024c9061093e565b80601f01602080910402602001604051908101604052809291908181526020018280546102789061093e565b80156102c55780601f1061029a576101008083540402835291602001916102c5565b820191906000526020600020905b8154815290600101906020018083116102a857829003601f168201915b5050505050905090565b6000336102dd818585610418565b60019150505b92915050565b6000336102f7858285610570565b610302858585610602565b506001949350505050565b3360008181526001602090815260408083206001600160a01b03871684529091528120549091906102dd9082908690610347908790610978565b610418565b60606004805461024c9061093e565b3360008181526001602090815260408083206001600160a01b0387168452909152812054909190838110156103fd5760405162461bcd60e51b815260206004820152602560248201527f45524332303a2064656372656173656420616c6c6f77616e63652062656c6f7760448201527f207a65726f00000000000000000000000000000000000000000000000000000060648201526084015b60405180910390fd5b6103028286868403610418565b6000336102dd818585610602565b6001600160a01b0383166104935760405162461bcd60e51b8152602060048201526024808201527f45524332303a20617070726f76652066726f6d20746865207a65726f2061646460448201527f726573730000000000000000000000000000000000000000000000000000000060648201526084016103f4565b6001600160a01b03821661050f5760405162461bcd60e51b815260206004820152602260248201527f45524332303a20617070726f766520746f20746865207a65726f20616464726560448201527f737300000000000000000000000000000000000000000000000000000000000060648201526084016103f4565b6001600160a01b0383811660008181526001602090815260408083209487168084529482529182902085905590518481527f8c5be1e5ebec7d5bd14f71427d1e84f3dd0314c0f7b2291e5b200ac8c7c3b925910160405180910390a3505050565b6001600160a01b0383811660009081526001602090815260408083209386168352929052205460001981146105fc57818110156105ef5760405162461bcd60e51b815260206004820152601d60248201527f45524332303a20696e73756666696369656e7420616c6c6f77616e636500000060448201526064016103f4565b6105fc8484848403610418565b50505050565b6001600160a01b03831661067e5760405162461bcd60e51b815260206004820152602560248201527f45524332303a207472616e736665722066726f6d20746865207a65726f20616460448201527f647265737300000000000000000000000000000000000000000000000000000060648201526084016103f4565b6001600160a01b0382166106fa5760405162461bcd60e51b815260206004820152602360248201527f45524332303a207472616e7366657220746f20746865207a65726f206164647260448201527f657373000000000000000000000000000000000000000000000000000000000060648201526084016103f4565b6001600160a01b038316600090815260208190526040902054818110156107895760405162461bcd60e51b815260206004820152602660248201527f45524332303a207472616e7366657220616d6f756e742065786365656473206260448201527f616c616e6365000000000000000000000000000000000000000000000000000060648201526084016103f4565b6001600160a01b038085166000908152602081905260408082208585039055918516815290812080548492906107c0908490610978565b92505081905550826001600160a01b0316846001600160a01b03167fddf252ad1be2c89b69c2b068fc378daa952ba7f163c4a11628f55a4df523b3ef8460405161080c91815260200190565b60405180910390a36105fc565b600060208083528351808285015260005b818110156108465785810183015185820160400152820161082a565b506000604082860101526040601f19601f8301168501019250505092915050565b80356001600160a01b038116811461087e57600080fd5b919050565b6000806040838503121561089657600080fd5b61089f83610867565b946020939093013593505050565b6000806000606084860312156108c257600080fd5b6108cb84610867565b92506108d960208501610867565b9150604084013590509250925092565b6000602082840312156108fb57600080fd5b61090482610867565b9392505050565b6000806040838503121561091e57600080fd5b61092783610867565b915061093560208401610867565b90509250929050565b600181811c9082168061095257607f821691505b60208210810361097257634e487b7160e01b600052602260045260246000fd5b50919050565b808201808211156102e357634e487b7160e01b600052601160045260246000fdfea2646970667358221220618671cafadc009b03c3b6cff6ad9a48e16b5369fdd19a20228a605edbb2f85364736f6c63430008110033",
  "linkReferences": {},
  "deployedLinkReferences": {}
}