{
  "_format": "hh-sol-artifact-1",
  "contractName": "AminoChainDonation",
  "sourceName": "contracts/AminoChainDonation.sol",
  "abi": [
    {
      "inputs": [
        {
          "internalType": "string",
          "name": "name",
          "type": "string"
        },
        {
          "internalType": "string",
          "name": "symbol",
          "type": "string"
        }
      ],
      "stateMutability": "nonpayable",
      "type": "constructor"
    },
    {
      "anonymous": false,
      "inputs": [
        {
          "indexed": true,
          "internalType": "address",
          "name": "owner",
          "type": "address"
        },
        {
          "indexed": true,
          "internalType": "address",
          "name": "approved",
          "type": "address"
        },
        {
          "indexed": true,
          "internalType": "uint256",
          "name": "tokenId",
          "type": "uint256"
        }
      ],
      "name": "Approval",
      "type": "event"
    },
    {
      "anonymous": false,
      "inputs": [
        {
          "indexed": true,
          "internalType": "address",
          "name": "owner",
          "type": "address"
        },
        {
          "indexed": true,
          "internalType": "address",
          "name": "operator",
          "type": "address"
        },
        {
          "indexed": false,
          "internalType": "bool",
          "name": "approved",
          "type": "bool"
        }
      ],
      "name": "ApprovalForAll",
      "type": "event"
    },
    {
      "anonymous": false,
      "inputs": [
        {
          "indexed": false,
          "internalType": "address",
          "name": "donor",
          "type": "address"
        },
        {
          "components": [
            {
              "internalType": "bytes32",
              "name": "A",
              "type": "bytes32"
            },
            {
              "internalType": "bytes32",
              "name": "B",
              "type": "bytes32"
            },
            {
              "internalType": "bytes32",
              "name": "C",
              "type": "bytes32"
            },
            {
              "internalType": "bytes32",
              "name": "DPB",
              "type": "bytes32"
            },
            {
              "internalType": "bytes32",
              "name": "DRB",
              "type": "bytes32"
            }
          ],
          "indexed": false,
          "internalType": "struct AminoChainLibrary.HlaHashed",
          "name": "hlaHashed",
          "type": "tuple"
        },
        {
          "indexed": false,
          "internalType": "uint256[]",
          "name": "tokenIds",
          "type": "uint256[]"
        },
        {
          "indexed": false,
          "internalType": "uint256[]",
          "name": "amounts",
          "type": "uint256[]"
        }
      ],
      "name": "NFTMinted",
      "type": "event"
    },
    {
      "anonymous": false,
      "inputs": [
        {
          "indexed": true,
          "internalType": "address",
          "name": "previousOwner",
          "type": "address"
        },
        {
          "indexed": true,
          "internalType": "address",
          "name": "newOwner",
          "type": "address"
        }
      ],
      "name": "OwnershipTransferred",
      "type": "event"
    },
    {
      "anonymous": false,
      "inputs": [
        {
          "indexed": false,
          "internalType": "address",
          "name": "account",
          "type": "address"
        }
      ],
      "name": "Paused",
      "type": "event"
    },
    {
      "anonymous": false,
      "inputs": [
        {
          "indexed": true,
          "internalType": "address",
          "name": "from",
          "type": "address"
        },
        {
          "indexed": true,
          "internalType": "address",
          "name": "to",
          "type": "address"
        },
        {
          "indexed": true,
          "internalType": "uint256",
          "name": "tokenId",
          "type": "uint256"
        }
      ],
      "name": "Transfer",
      "type": "event"
    },
    {
      "anonymous": false,
      "inputs": [
        {
          "indexed": false,
          "internalType": "address",
          "name": "account",
          "type": "address"
        }
      ],
      "name": "Unpaused",
      "type": "event"
    },
    {
      "inputs": [
        {
          "internalType": "address",
          "name": "",
          "type": "address"
        },
        {
          "internalType": "uint256",
          "name": "",
          "type": "uint256"
        }
      ],
      "name": "addressToTokenIds",
      "outputs": [
        {
          "internalType": "uint256",
          "name": "",
          "type": "uint256"
        }
      ],
      "stateMutability": "view",
      "type": "function"
    },
    {
      "inputs": [
        {
          "internalType": "address",
          "name": "to",
          "type": "address"
        },
        {
          "internalType": "uint256",
          "name": "tokenId",
          "type": "uint256"
        }
      ],
      "name": "approve",
      "outputs": [],
      "stateMutability": "nonpayable",
      "type": "function"
    },
    {
      "inputs": [
        {
          "internalType": "address",
          "name": "owner",
          "type": "address"
        }
      ],
      "name": "balanceOf",
      "outputs": [
        {
          "internalType": "uint256",
          "name": "",
          "type": "uint256"
        }
      ],
      "stateMutability": "view",
      "type": "function"
    },
    {
      "inputs": [
        {
          "internalType": "uint256",
          "name": "tokenId",
          "type": "uint256"
        }
      ],
      "name": "getApproved",
      "outputs": [
        {
          "internalType": "address",
          "name": "",
          "type": "address"
        }
      ],
      "stateMutability": "view",
      "type": "function"
    },
    {
      "inputs": [
        {
          "internalType": "uint256",
          "name": "tokenId",
          "type": "uint256"
        }
      ],
      "name": "getGenomeEncodedIpfsId",
      "outputs": [
        {
          "internalType": "string",
          "name": "",
          "type": "string"
        }
      ],
      "stateMutability": "view",
      "type": "function"
    },
    {
      "inputs": [
        {
          "internalType": "uint256",
          "name": "tokenId",
          "type": "uint256"
        }
      ],
      "name": "getHlaEncoded",
      "outputs": [
        {
          "internalType": "bytes",
          "name": "",
          "type": "bytes"
        }
      ],
      "stateMutability": "view",
      "type": "function"
    },
    {
      "inputs": [
        {
          "internalType": "uint256",
          "name": "tokenId",
          "type": "uint256"
        }
      ],
      "name": "getHlaHashed",
      "outputs": [
        {
          "components": [
            {
              "internalType": "bytes32",
              "name": "A",
              "type": "bytes32"
            },
            {
              "internalType": "bytes32",
              "name": "B",
              "type": "bytes32"
            },
            {
              "internalType": "bytes32",
              "name": "C",
              "type": "bytes32"
            },
            {
              "internalType": "bytes32",
              "name": "DPB",
              "type": "bytes32"
            },
            {
              "internalType": "bytes32",
              "name": "DRB",
              "type": "bytes32"
            }
          ],
          "internalType": "struct AminoChainLibrary.HlaHashed",
          "name": "",
          "type": "tuple"
        }
      ],
      "stateMutability": "view",
      "type": "function"
    },
    {
      "inputs": [
        {
          "internalType": "address",
          "name": "donor",
          "type": "address"
        }
      ],
      "name": "getTokenIdsByDonor",
      "outputs": [
        {
          "internalType": "uint256[]",
          "name": "",
          "type": "uint256[]"
        }
      ],
      "stateMutability": "view",
      "type": "function"
    },
    {
      "inputs": [
        {
          "internalType": "bytes32",
          "name": "",
          "type": "bytes32"
        }
      ],
      "name": "hlaHashToHlaEncoded",
      "outputs": [
        {
          "internalType": "bytes",
          "name": "",
          "type": "bytes"
        }
      ],
      "stateMutability": "view",
      "type": "function"
    },
    {
      "inputs": [
        {
          "internalType": "address",
          "name": "owner",
          "type": "address"
        },
        {
          "internalType": "address",
          "name": "operator",
          "type": "address"
        }
      ],
      "name": "isApprovedForAll",
      "outputs": [
        {
          "internalType": "bool",
          "name": "",
          "type": "bool"
        }
      ],
      "stateMutability": "view",
      "type": "function"
    },
    {
      "inputs": [
        {
          "components": [
            {
              "components": [
                {
                  "internalType": "bytes32",
                  "name": "A",
                  "type": "bytes32"
                },
                {
                  "internalType": "bytes32",
                  "name": "B",
                  "type": "bytes32"
                },
                {
                  "internalType": "bytes32",
                  "name": "C",
                  "type": "bytes32"
                },
                {
                  "internalType": "bytes32",
                  "name": "DPB",
                  "type": "bytes32"
                },
                {
                  "internalType": "bytes32",
                  "name": "DRB",
                  "type": "bytes32"
                }
              ],
              "internalType": "struct AminoChainLibrary.HlaHashed",
              "name": "hlaHashed",
              "type": "tuple"
            },
            {
              "internalType": "bytes32",
              "name": "hlaHash",
              "type": "bytes32"
            },
            {
              "internalType": "bytes",
              "name": "hlaEncoded",
              "type": "bytes"
            },
            {
              "internalType": "string",
              "name": "genomeEncodedIpfsId",
              "type": "string"
            },
            {
              "internalType": "uint256[]",
              "name": "amounts",
              "type": "uint256[]"
            },
            {
              "internalType": "address",
              "name": "donor",
              "type": "address"
            },
            {
              "internalType": "address",
              "name": "biobank",
              "type": "address"
            }
          ],
          "internalType": "struct AminoChainLibrary.RegistrationData",
          "name": "data",
          "type": "tuple"
        }
      ],
      "name": "mint",
      "outputs": [
        {
          "internalType": "uint256[]",
          "name": "",
          "type": "uint256[]"
        }
      ],
      "stateMutability": "nonpayable",
      "type": "function"
    },
    {
      "inputs": [],
      "name": "name",
      "outputs": [
        {
          "internalType": "string",
          "name": "",
          "type": "string"
        }
      ],
      "stateMutability": "view",
      "type": "function"
    },
    {
      "inputs": [],
      "name": "owner",
      "outputs": [
        {
          "internalType": "address",
          "name": "",
          "type": "address"
        }
      ],
      "stateMutability": "view",
      "type": "function"
    },
    {
      "inputs": [
        {
          "internalType": "uint256",
          "name": "tokenId",
          "type": "uint256"
        }
      ],
      "name": "ownerOf",
      "outputs": [
        {
          "internalType": "address",
          "name": "",
          "type": "address"
        }
      ],
      "stateMutability": "view",
      "type": "function"
    },
    {
      "inputs": [],
      "name": "pause",
      "outputs": [],
      "stateMutability": "nonpayable",
      "type": "function"
    },
    {
      "inputs": [],
      "name": "paused",
      "outputs": [
        {
          "internalType": "bool",
          "name": "",
          "type": "bool"
        }
      ],
      "stateMutability": "view",
      "type": "function"
    },
    {
      "inputs": [],
      "name": "renounceOwnership",
      "outputs": [],
      "stateMutability": "nonpayable",
      "type": "function"
    },
    {
      "inputs": [
        {
          "internalType": "address",
          "name": "from",
          "type": "address"
        },
        {
          "internalType": "address",
          "name": "to",
          "type": "address"
        },
        {
          "internalType": "uint256",
          "name": "tokenId",
          "type": "uint256"
        }
      ],
      "name": "safeTransferFrom",
      "outputs": [],
      "stateMutability": "nonpayable",
      "type": "function"
    },
    {
      "inputs": [
        {
          "internalType": "address",
          "name": "from",
          "type": "address"
        },
        {
          "internalType": "address",
          "name": "to",
          "type": "address"
        },
        {
          "internalType": "uint256",
          "name": "tokenId",
          "type": "uint256"
        },
        {
          "internalType": "bytes",
          "name": "data",
          "type": "bytes"
        }
      ],
      "name": "safeTransferFrom",
      "outputs": [],
      "stateMutability": "nonpayable",
      "type": "function"
    },
    {
      "inputs": [
        {
          "internalType": "address",
          "name": "operator",
          "type": "address"
        },
        {
          "internalType": "bool",
          "name": "approved",
          "type": "bool"
        }
      ],
      "name": "setApprovalForAll",
      "outputs": [],
      "stateMutability": "nonpayable",
      "type": "function"
    },
    {
      "inputs": [
        {
          "internalType": "uint256",
          "name": "tokenId",
          "type": "uint256"
        },
        {
          "internalType": "string",
          "name": "uri",
          "type": "string"
        }
      ],
      "name": "setTokenURI",
      "outputs": [],
      "stateMutability": "nonpayable",
      "type": "function"
    },
    {
      "inputs": [
        {
          "internalType": "bytes4",
          "name": "interfaceId",
          "type": "bytes4"
        }
      ],
      "name": "supportsInterface",
      "outputs": [
        {
          "internalType": "bool",
          "name": "",
          "type": "bool"
        }
      ],
      "stateMutability": "view",
      "type": "function"
    },
    {
      "inputs": [],
      "name": "symbol",
      "outputs": [
        {
          "internalType": "string",
          "name": "",
          "type": "string"
        }
      ],
      "stateMutability": "view",
      "type": "function"
    },
    {
      "inputs": [
        {
          "internalType": "uint256",
          "name": "",
          "type": "uint256"
        }
      ],
      "name": "tokenIdToDonationData",
      "outputs": [
        {
          "internalType": "address",
          "name": "donorAddress",
          "type": "address"
        },
        {
          "components": [
            {
              "internalType": "bytes32",
              "name": "A",
              "type": "bytes32"
            },
            {
              "internalType": "bytes32",
              "name": "B",
              "type": "bytes32"
            },
            {
              "internalType": "bytes32",
              "name": "C",
              "type": "bytes32"
            },
            {
              "internalType": "bytes32",
              "name": "DPB",
              "type": "bytes32"
            },
            {
              "internalType": "bytes32",
              "name": "DRB",
              "type": "bytes32"
            }
          ],
          "internalType": "struct AminoChainLibrary.HlaHashed",
          "name": "hlaHashed",
          "type": "tuple"
        },
        {
          "internalType": "bytes32",
          "name": "hlaHash",
          "type": "bytes32"
        },
        {
          "internalType": "string",
          "name": "genomeEncodedIpfsId",
          "type": "string"
        },
        {
          "internalType": "uint256",
          "name": "amount",
          "type": "uint256"
        }
      ],
      "stateMutability": "view",
      "type": "function"
    },
    {
      "inputs": [
        {
          "internalType": "uint256",
          "name": "tokenId",
          "type": "uint256"
        }
      ],
      "name": "tokenURI",
      "outputs": [
        {
          "internalType": "string",
          "name": "",
          "type": "string"
        }
      ],
      "stateMutability": "view",
      "type": "function"
    },
    {
      "inputs": [
        {
          "internalType": "address",
          "name": "from",
          "type": "address"
        },
        {
          "internalType": "address",
          "name": "to",
          "type": "address"
        },
        {
          "internalType": "uint256",
          "name": "tokenId",
          "type": "uint256"
        }
      ],
      "name": "transferFrom",
      "outputs": [],
      "stateMutability": "nonpayable",
      "type": "function"
    },
    {
      "inputs": [
        {
          "internalType": "address",
          "name": "newOwner",
          "type": "address"
        }
      ],
      "name": "transferOwnership",
      "outputs": [],
      "stateMutability": "nonpayable",
      "type": "function"
    },
    {
      "inputs": [],
      "name": "unpause",
      "outputs": [],
      "stateMutability": "nonpayable",
      "type": "function"
    }
  ],
  "bytecode": "0x60806040523480156200001157600080fd5b5060405162002750380380620027508339810160408190526200003491620001b2565b81816000620000448382620002ab565b506001620000538282620002ab565b50506006805460ff19169055506200006b336200008a565b620000826007620000e460201b620010341760201c565b505062000377565b600680546001600160a01b03838116610100818102610100600160a81b031985161790945560405193909204169182907f8be0079c531659141344cd1fd0a4f28419497f9722a3daafe3b4186f6b6457e090600090a35050565b80546001019055565b634e487b7160e01b600052604160045260246000fd5b600082601f8301126200011557600080fd5b81516001600160401b0380821115620001325762000132620000ed565b604051601f8301601f19908116603f011681019082821181831017156200015d576200015d620000ed565b816040528381526020925086838588010111156200017a57600080fd5b600091505b838210156200019e57858201830151818301840152908201906200017f565b600093810190920192909252949350505050565b60008060408385031215620001c657600080fd5b82516001600160401b0380821115620001de57600080fd5b620001ec8683870162000103565b935060208501519150808211156200020357600080fd5b50620002128582860162000103565b9150509250929050565b600181811c908216806200023157607f821691505b6020821081036200025257634e487b7160e01b600052602260045260246000fd5b50919050565b601f821115620002a657600081815260208120601f850160051c81016020861015620002815750805b601f850160051c820191505b81811015620002a2578281556001016200028d565b5050505b505050565b81516001600160401b03811115620002c757620002c7620000ed565b620002df81620002d884546200021c565b8462000258565b602080601f831160018114620003175760008415620002fe5750858301515b600019600386901b1c1916600185901b178555620002a2565b600085815260208120601f198616915b82811015620003485788860151825594840194600190910190840162000327565b5085821015620003675787850151600019600388901b60f8161c191681555b5050505050600190811b01905550565b6123c980620003876000396000f3fe608060405234801561001057600080fd5b50600436106101c45760003560e01c806370a08231116100f9578063a57465e111610097578063b88d4fde11610071578063b88d4fde14610442578063c87b56dd14610455578063e985e9c514610468578063f2fde38b146104a457600080fd5b8063a57465e1146103f8578063aee4424f1461040b578063b2d7a2671461042f57600080fd5b80638456cb59116100d35780638456cb59146103bf5780638da5cb5b146103c757806395d89b41146103dd578063a22cb465146103e557600080fd5b806370a08231146102fe578063715018a61461031f578063809301761461032757600080fd5b806323b872dd1161016657806344ff82101161014057806344ff8210146102ba5780634fe7f56d146102cd5780635c975abb146102e05780636352211e146102eb57600080fd5b806323b872dd1461028c5780633f4ba83a1461029f57806342842e0e146102a757600080fd5b8063095ea7b3116101a2578063095ea7b31461023157806314db7b9514610246578063162094c4146102595780631881eeb41461026c57600080fd5b806301ffc9a7146101c957806306fdde03146101f1578063081812fc14610206575b600080fd5b6101dc6101d7366004611abb565b6104b7565b60405190151581526020015b60405180910390f35b6101f9610554565b6040516101e89190611b25565b610219610214366004611b38565b6105e6565b6040516001600160a01b0390911681526020016101e8565b61024461023f366004611b68565b61060d565b005b6101f9610254366004611b38565b610761565b610244610267366004611b92565b610806565b61027f61027a366004611c0e565b610825565b6040516101e89190611c64565b61024461029a366004611c77565b610890565b610244610917565b6102446102b5366004611c77565b610929565b6101f96102c8366004611b38565b610944565b61027f6102db366004611cb3565b6109de565b60065460ff166101dc565b6102196102f9366004611b38565b610ce3565b61031161030c366004611c0e565b610d48565b6040519081526020016101e8565b610244610de2565b6103b2610335366004611b38565b6040805160a08101825260008082526020820181905291810182905260608101829052608081019190915250600090815260096020908152604091829020825160a0810184526001820154815260028201549281019290925260038101549282019290925260048201546060820152600590910154608082015290565b6040516101e89190611cef565b610244610df4565b60065461010090046001600160a01b0316610219565b6101f9610e04565b6102446103f3366004611d28565b610e13565b610311610406366004611b68565b610e22565b61041e610419366004611b38565b610e53565b6040516101e8959493929190611d64565b6101f961043d366004611b38565b610f4e565b610244610450366004611e20565b610f7b565b6101f9610463366004611b38565b611003565b6101dc610476366004611ee0565b6001600160a01b03918216600090815260056020908152604080832093909416825291909152205460ff1690565b6102446104b2366004611c0e565b611020565b60006001600160e01b031982167f80ac58cd00000000000000000000000000000000000000000000000000000000148061051a57506001600160e01b031982167f5b5e139f00000000000000000000000000000000000000000000000000000000145b8061054e57507f01ffc9a7000000000000000000000000000000000000000000000000000000006001600160e01b03198316145b92915050565b60606000805461056390611f13565b80601f016020809104026020016040519081016040528092919081815260200182805461058f90611f13565b80156105dc5780601f106105b1576101008083540402835291602001916105dc565b820191906000526020600020905b8154815290600101906020018083116105bf57829003601f168201915b5050505050905090565b60006105f18261103d565b506000908152600460205260409020546001600160a01b031690565b600061061882610ce3565b9050806001600160a01b0316836001600160a01b0316036106a65760405162461bcd60e51b815260206004820152602160248201527f4552433732313a20617070726f76616c20746f2063757272656e74206f776e6560448201527f720000000000000000000000000000000000000000000000000000000000000060648201526084015b60405180910390fd5b336001600160a01b03821614806106e057506001600160a01b038116600090815260056020908152604080832033845290915290205460ff165b6107525760405162461bcd60e51b815260206004820152603e60248201527f4552433732313a20617070726f76652063616c6c6572206973206e6f7420746f60448201527f6b656e206f776e6572206e6f7220617070726f76656420666f7220616c6c0000606482015260840161069d565b61075c83836110a1565b505050565b600081815260096020526040902060070180546060919061078190611f13565b80601f01602080910402602001604051908101604052809291908181526020018280546107ad90611f13565b80156107fa5780601f106107cf576101008083540402835291602001916107fa565b820191906000526020600020905b8154815290600101906020018083116107dd57829003601f168201915b50505050509050919050565b600083815260086020526040902061081f828483611f9b565b50505050565b6001600160a01b0381166000908152600b60209081526040918290208054835181840281018401909452808452606093928301828280156107fa57602002820191906000526020600020905b8154815260200190600101908083116108715750505050509050919050565b61089a338261111c565b61090c5760405162461bcd60e51b815260206004820152602e60248201527f4552433732313a2063616c6c6572206973206e6f7420746f6b656e206f776e6560448201527f72206e6f7220617070726f766564000000000000000000000000000000000000606482015260840161069d565b61075c83838361119b565b61091f611380565b6109276113e0565b565b61075c83838360405180602001604052806000815250610f7b565b600a602052600090815260409020805461095d90611f13565b80601f016020809104026020016040519081016040528092919081815260200182805461098990611f13565b80156109d65780601f106109ab576101008083540402835291602001916109d6565b820191906000526020600020905b8154815290600101906020018083116109b957829003601f168201915b505050505081565b60606109e8611380565b6109f0611432565b6000610a0061010084018461205c565b905067ffffffffffffffff811115610a1a57610a1a611dd9565b604051908082528060200260200182016040528015610a43578160200160208202803683370190505b50905060005b610a5761010085018561205c565b9050811015610c7e576000610a6b60075490565b9050610a7b600780546001019055565b610a853382611485565b6040805160a0810190915280610aa361014088016101208901611c0e565b6001600160a01b03168152602001610ac0368890038801886120ad565b815260a08701356020820152604001610adc60e088018861211d565b8080601f016020809104026020016040519081016040528093929190818152602001838380828437600092019190915250505090825250602001610b2461010088018861205c565b85818110610b3457610b34612164565b602090810292909201359092526000848152600982526040908190208451815473ffffffffffffffffffffffffffffffffffffffff19166001600160a01b03909116178155848301518051600183015592830151600282015582820151600382015560608084015160048301556080909301516005820155908401516006820155908301519091506007820190610bcb908261217a565b5060809190910151600890910155610be660c086018661211d565b60a08701356000908152600a6020526040902091610c05919083611f9b565b50600b6000610c1c61014088016101208901611c0e565b6001600160a01b03168152602080820192909252604001600090812080546001810182559082529190200181905582518190849084908110610c6057610c60612164565b60209081029190910101525080610c7681612250565b915050610a49565b507f2672d08f1d65039f25b6645e02edde4d24b99f3d87b9207d39013c3437da2e1b610cb261014085016101208601611c0e565b84610cc161010082018261205c565b85604051610cd3959493929190612269565b60405180910390a190505b919050565b6000818152600260205260408120546001600160a01b03168061054e5760405162461bcd60e51b815260206004820152601860248201527f4552433732313a20696e76616c696420746f6b656e2049440000000000000000604482015260640161069d565b60006001600160a01b038216610dc65760405162461bcd60e51b815260206004820152602960248201527f4552433732313a2061646472657373207a65726f206973206e6f74206120766160448201527f6c6964206f776e65720000000000000000000000000000000000000000000000606482015260840161069d565b506001600160a01b031660009081526003602052604090205490565b610dea611380565b610927600061149f565b610dfc611380565b610927611510565b60606001805461056390611f13565b610e1e33838361154d565b5050565b600b6020528160005260406000208181548110610e3e57600080fd5b90600052602060002001600091509150505481565b6009602090815260009182526040918290208054835160a08101855260018301548152600283015493810193909352600382015493830193909352600481015460608301526005810154608083015260068101546007820180546001600160a01b0390951694919291610ec590611f13565b80601f0160208091040260200160405190810160405280929190818152602001828054610ef190611f13565b8015610f3e5780601f10610f1357610100808354040283529160200191610f3e565b820191906000526020600020905b815481529060010190602001808311610f2157829003601f168201915b5050505050908060080154905085565b6000818152600960209081526040808320600601548352600a909152902080546060919061078190611f13565b610f85338361111c565b610ff75760405162461bcd60e51b815260206004820152602e60248201527f4552433732313a2063616c6c6572206973206e6f7420746f6b656e206f776e6560448201527f72206e6f7220617070726f766564000000000000000000000000000000000000606482015260840161069d565b61081f8484848461161b565b600081815260086020526040902080546060919061078190611f13565b611028611380565b61103181611699565b50565b80546001019055565b6000818152600260205260409020546001600160a01b03166110315760405162461bcd60e51b815260206004820152601860248201527f4552433732313a20696e76616c696420746f6b656e2049440000000000000000604482015260640161069d565b6000818152600460205260409020805473ffffffffffffffffffffffffffffffffffffffff19166001600160a01b03841690811790915581906110e382610ce3565b6001600160a01b03167f8c5be1e5ebec7d5bd14f71427d1e84f3dd0314c0f7b2291e5b200ac8c7c3b92560405160405180910390a45050565b60008061112883610ce3565b9050806001600160a01b0316846001600160a01b0316148061116f57506001600160a01b0380821660009081526005602090815260408083209388168352929052205460ff165b806111935750836001600160a01b0316611188846105e6565b6001600160a01b0316145b949350505050565b826001600160a01b03166111ae82610ce3565b6001600160a01b03161461122a5760405162461bcd60e51b815260206004820152602560248201527f4552433732313a207472616e736665722066726f6d20696e636f72726563742060448201527f6f776e6572000000000000000000000000000000000000000000000000000000606482015260840161069d565b6001600160a01b0382166112a55760405162461bcd60e51b8152602060048201526024808201527f4552433732313a207472616e7366657220746f20746865207a65726f2061646460448201527f7265737300000000000000000000000000000000000000000000000000000000606482015260840161069d565b6112b0838383611726565b6112bb6000826110a1565b6001600160a01b03831660009081526003602052604081208054600192906112e4908490612314565b90915550506001600160a01b0382166000908152600360205260408120805460019290611312908490612327565b9091555050600081815260026020526040808220805473ffffffffffffffffffffffffffffffffffffffff19166001600160a01b0386811691821790925591518493918716917fddf252ad1be2c89b69c2b068fc378daa952ba7f163c4a11628f55a4df523b3ef91a4505050565b6006546001600160a01b036101009091041633146109275760405162461bcd60e51b815260206004820181905260248201527f4f776e61626c653a2063616c6c6572206973206e6f7420746865206f776e6572604482015260640161069d565b6113e861172e565b6006805460ff191690557f5db9ee0a495bf2e6ff9c91a7834c1ba4fdd244a5e8aa4e537bd38aeae4b073aa335b6040516001600160a01b03909116815260200160405180910390a1565b60065460ff16156109275760405162461bcd60e51b815260206004820152601060248201527f5061757361626c653a2070617573656400000000000000000000000000000000604482015260640161069d565b610e1e828260405180602001604052806000815250611780565b600680546001600160a01b038381166101008181027fffffffffffffffffffffff0000000000000000000000000000000000000000ff85161790945560405193909204169182907f8be0079c531659141344cd1fd0a4f28419497f9722a3daafe3b4186f6b6457e090600090a35050565b611518611432565b6006805460ff191660011790557f62e78cea01bee320cd4e420270b5ea74000d11b0c9f74754ebdbfc544b05a2586114153390565b816001600160a01b0316836001600160a01b0316036115ae5760405162461bcd60e51b815260206004820152601960248201527f4552433732313a20617070726f766520746f2063616c6c657200000000000000604482015260640161069d565b6001600160a01b03838116600081815260056020908152604080832094871680845294825291829020805460ff191686151590811790915591519182527f17307eab39ab6107e8899845ad3d59bd9653f200f220920489ca2b5937696c31910160405180910390a3505050565b61162684848461119b565b611632848484846117fe565b61081f5760405162461bcd60e51b815260206004820152603260248201527f4552433732313a207472616e7366657220746f206e6f6e20455243373231526560448201527131b2b4bb32b91034b6b83632b6b2b73a32b960711b606482015260840161069d565b6116a1611380565b6001600160a01b03811661171d5760405162461bcd60e51b815260206004820152602660248201527f4f776e61626c653a206e6577206f776e657220697320746865207a65726f206160448201527f6464726573730000000000000000000000000000000000000000000000000000606482015260840161069d565b6110318161149f565b61075c611432565b60065460ff166109275760405162461bcd60e51b815260206004820152601460248201527f5061757361626c653a206e6f7420706175736564000000000000000000000000604482015260640161069d565b61178a838361194a565b61179760008484846117fe565b61075c5760405162461bcd60e51b815260206004820152603260248201527f4552433732313a207472616e7366657220746f206e6f6e20455243373231526560448201527131b2b4bb32b91034b6b83632b6b2b73a32b960711b606482015260840161069d565b60006001600160a01b0384163b1561193f57604051630a85bd0160e11b81526001600160a01b0385169063150b7a029061184290339089908890889060040161233a565b6020604051808303816000875af192505050801561187d575060408051601f3d908101601f1916820190925261187a91810190612376565b60015b611925573d8080156118ab576040519150601f19603f3d011682016040523d82523d6000602084013e6118b0565b606091505b50805160000361191d5760405162461bcd60e51b815260206004820152603260248201527f4552433732313a207472616e7366657220746f206e6f6e20455243373231526560448201527131b2b4bb32b91034b6b83632b6b2b73a32b960711b606482015260840161069d565b805181602001fd5b6001600160e01b031916630a85bd0160e11b149050611193565b506001949350505050565b6001600160a01b0382166119a05760405162461bcd60e51b815260206004820181905260248201527f4552433732313a206d696e7420746f20746865207a65726f2061646472657373604482015260640161069d565b6000818152600260205260409020546001600160a01b031615611a055760405162461bcd60e51b815260206004820152601c60248201527f4552433732313a20746f6b656e20616c7265616479206d696e74656400000000604482015260640161069d565b611a1160008383611726565b6001600160a01b0382166000908152600360205260408120805460019290611a3a908490612327565b9091555050600081815260026020526040808220805473ffffffffffffffffffffffffffffffffffffffff19166001600160a01b03861690811790915590518392907fddf252ad1be2c89b69c2b068fc378daa952ba7f163c4a11628f55a4df523b3ef908290a45050565b6001600160e01b03198116811461103157600080fd5b600060208284031215611acd57600080fd5b8135611ad881611aa5565b9392505050565b6000815180845260005b81811015611b0557602081850181015186830182015201611ae9565b506000602082860101526020601f19601f83011685010191505092915050565b602081526000611ad86020830184611adf565b600060208284031215611b4a57600080fd5b5035919050565b80356001600160a01b0381168114610cde57600080fd5b60008060408385031215611b7b57600080fd5b611b8483611b51565b946020939093013593505050565b600080600060408486031215611ba757600080fd5b83359250602084013567ffffffffffffffff80821115611bc657600080fd5b818601915086601f830112611bda57600080fd5b813581811115611be957600080fd5b876020828501011115611bfb57600080fd5b6020830194508093505050509250925092565b600060208284031215611c2057600080fd5b611ad882611b51565b600081518084526020808501945080840160005b83811015611c5957815187529582019590820190600101611c3d565b509495945050505050565b602081526000611ad86020830184611c29565b600080600060608486031215611c8c57600080fd5b611c9584611b51565b9250611ca360208501611b51565b9150604084013590509250925092565b600060208284031215611cc557600080fd5b813567ffffffffffffffff811115611cdc57600080fd5b82016101608185031215611ad857600080fd5b60a0810161054e828480518252602081015160208301526040810151604083015260608101516060830152608081015160808301525050565b60008060408385031215611d3b57600080fd5b611d4483611b51565b915060208301358015158114611d5957600080fd5b809150509250929050565b60006101206001600160a01b0388168352611dad602084018880518252602081015160208301526040810151604083015260608101516060830152608081015160808301525050565b8560c08401528060e0840152611dc581840186611adf565b915050826101008301529695505050505050565b634e487b7160e01b600052604160045260246000fd5b604051601f8201601f1916810167ffffffffffffffff81118282101715611e1857611e18611dd9565b604052919050565b60008060008060808587031215611e3657600080fd5b611e3f85611b51565b93506020611e4e818701611b51565b935060408601359250606086013567ffffffffffffffff80821115611e7257600080fd5b818801915088601f830112611e8657600080fd5b813581811115611e9857611e98611dd9565b611eaa601f8201601f19168501611def565b91508082528984828501011115611ec057600080fd5b808484018584013760008482840101525080935050505092959194509250565b60008060408385031215611ef357600080fd5b611efc83611b51565b9150611f0a60208401611b51565b90509250929050565b600181811c90821680611f2757607f821691505b602082108103611f4757634e487b7160e01b600052602260045260246000fd5b50919050565b601f82111561075c57600081815260208120601f850160051c81016020861015611f745750805b601f850160051c820191505b81811015611f9357828155600101611f80565b505050505050565b67ffffffffffffffff831115611fb357611fb3611dd9565b611fc783611fc18354611f13565b83611f4d565b6000601f841160018114611ffb5760008515611fe35750838201355b600019600387901b1c1916600186901b178355612055565b600083815260209020601f19861690835b8281101561202c578685013582556020948501946001909201910161200c565b50868210156120495760001960f88860031b161c19848701351681555b505060018560011b0183555b5050505050565b6000808335601e1984360301811261207357600080fd5b83018035915067ffffffffffffffff82111561208e57600080fd5b6020019150600581901b36038213156120a657600080fd5b9250929050565b600060a082840312156120bf57600080fd5b60405160a0810181811067ffffffffffffffff821117156120e2576120e2611dd9565b806040525082358152602083013560208201526040830135604082015260608301356060820152608083013560808201528091505092915050565b6000808335601e1984360301811261213457600080fd5b83018035915067ffffffffffffffff82111561214f57600080fd5b6020019150368190038213156120a657600080fd5b634e487b7160e01b600052603260045260246000fd5b815167ffffffffffffffff81111561219457612194611dd9565b6121a8816121a28454611f13565b84611f4d565b602080601f8311600181146121dd57600084156121c55750858301515b600019600386901b1c1916600185901b178555611f93565b600085815260208120601f198616915b8281101561220c578886015182559484019460019091019084016121ed565b508582101561222a5787850151600019600388901b60f8161c191681555b5050505050600190811b01905550565b634e487b7160e01b600052601160045260246000fd5b6000600182016122625761226261223a565b5060010190565b60006101006001600160a01b038816835286356020840152602087013560408401526040870135606084015260608701356080840152608087013560a08401528060c08401528481840152506101207f07ffffffffffffffffffffffffffffffffffffffffffffffffffffffffffffff8511156122e557600080fd5b8460051b8087838601378301838103820160e085015261230782820186611c29565b9998505050505050505050565b8181038181111561054e5761054e61223a565b8082018082111561054e5761054e61223a565b60006001600160a01b0380871683528086166020840152508360408301526080606083015261236c6080830184611adf565b9695505050505050565b60006020828403121561238857600080fd5b8151611ad881611aa556fea2646970667358221220f03aa3ded0b3a808145d7b5b9ec5584c6c73b0ac99e6c799923c3b1dadef984c64736f6c63430008110033",
  "linkReferences": {},
  "deployedLinkReferences": {}
}